:100000000C942A000C9476020C949F020C94C80263
:100010000C9447000C9486030C9447000C94470002
:100020000C9447000C9447000C9447000C94470034
:100030000C9447000C9447000C9447000C94470024
:100040000C9447000C9447000C9447000C94470014
:100050000C94470011241FBECFE5D8E0DEBFCDBF12
:1000600010E0A0E6B0E0E6E5FDE002C005900D92EC
:10007000A437B107D9F725E0A4E7B0E001C01D928D
:10008000A033B207E1F70E94D1000C94A9060C94AA
:10009000000080916300909164000E94CB0008955D
:1000A00080916500909166000E94CB000895CF93E7
:1000B000DF9383E394E0909361008093600080E09D
:1000C0000E94770580E00E94C80381E00E94C5037A
:1000D000C3E6D0E0888199810E94C4008A819B8117
:1000E0000E94C400DF91CF91089583EF93E0909335
:1000F00061008093600081E00E94770580E00E94AB
:10010000C50381E00E94C8030895CF93DF93C3E63F
:10011000D0E0888199810E94BD008A819B810E94E4
:10012000BD002CE231E041E061E089E490E00E9412
:10013000670424EF31E043E062E080E590E00E9454
:1001400067040E94570567E570E080E00E94B603EF
:1001500065E770E081E00E94B603789480E00E9439
:10016000C50381E00E94C503DF91CF910895E0911E
:100170006000F09161000995FACF41E0692F0E947B
:10018000D800811185E0089540E0692F0E944F0159
:10019000811185E00895692F0E94C601811185E0D3
:1001A00008950E9485000E94B70080E090E00895C5
:1001B000813011F130F08230D1F1833009F452C036
:1001C0006CC041110DC02AB381E090E002C0880FDD
:1001D000991F6A95E2F7809582238ABB80E0089593
:1001E0002AB381E090E002C0880F991F6A95E2F778
:1001F000822B8ABB80E0089541110DC027B381E0B6
:1002000090E002C0880F991F6A95E2F780958223DB
:1002100087BB80E0089527B381E090E002C0880F9B
:10022000991F6A95E2F7822B87BB80E00895411100
:100230000DC024B381E090E002C0880F991F6A9539
:10024000E2F78095822384BB80E0089524B381E0A7
:1002500090E002C0880F991F6A95E2F7822B84BB59
:1002600080E0089541110DC021B381E090E002C00B
:10027000880F991F6A95E2F78095822381BB80E001
:10028000089521B381E090E002C0880F991F6A951C
:10029000E2F7822B81BB80E0089582E008958130EF
:1002A00011F130F08230D1F1833009F452C06CC0CA
:1002B000413069F42BB381E090E002C0880F991FB0
:1002C0006A95E2F7809582238BBB80E008952BB37B
:1002D00081E090E002C0880F991F6A95E2F7822BB7
:1002E0008BBB80E00895413069F428B381E090E051
:1002F00002C0880F991F6A95E2F78095822388BB18
:1003000080E0089528B381E090E002C0880F991F33
:100310006A95E2F7822B88BB80E00895413069F44A
:1003200025B381E090E002C0880F991F6A95E2F73B
:100330008095822385BB80E0089525B381E090E01D
:1003400002C0880F991F6A95E2F7822B85BB80E077
:100350000895413069F422B381E090E002C0880F33
:10036000991F6A95E2F78095822382BB80E0089509
:1003700022B381E090E002C0880F991F6A95E2F7EE
:10038000822B82BB80E0089582E00895813091F055
:1003900028F08230D9F0833029F130C02BB381E0CE
:1003A00090E002C0880F991F6A95E2F782278BBB05
:1003B00080E0089528B381E090E002C0880F991F83
:1003C0006A95E2F7822788BB80E0089525B381E033
:1003D00090E002C0880F991F6A95E2F7822785BBDB
:1003E00080E0089522B381E090E002C0880F991F59
:1003F0006A95E2F7822782BB80E0089582E0089543
:10040000833038F5813079F018F08230B9F023C0AC
:10041000789440E062E083E00E94D80085B7826073
:1004200085BF81E00895789440E063E083E00E9416
:10043000D80085B78C6085BF81E00895789440E04E
:1004400062E081E00E94D80084B7806884BF81E0C8
:10045000089582E0089582E008958330A8F4813001
:1004600049F018F0823059F011C08BB780648BBF0F
:1004700081E008958BB780688BBF81E008958BB7CA
:1004800080628BBF81E0089582E0089582E0089544
:100490008330A8F4813049F018F0823059F011C04F
:1004A0008BB78F7B8BBF81E008958BB78F778BBF26
:1004B00081E008958BB78F7D8BBF81E0089582E046
:1004C000089582E00895833068F46115710561F044
:1004D000E82FF0E0EE0FFF1FEC58FF4F71836083B1
:1004E00081E0089582E0089583E008951F920F92BD
:1004F0000FB60F9211242F933F934F935F936F93F7
:100500007F938F939F93AF93BF93EF93FF93E0916C
:100510007400F0917500309709F00995FF91EF9103
:10052000BF91AF919F918F917F916F915F914F910B
:100530003F912F910F900FBE0F901F9018951F9213
:100540000F920FB60F9211242F933F934F935F9307
:100550006F937F938F939F93AF93BF93EF93FF938B
:10056000E0917600F0917700309709F00995FF91BE
:10057000EF91BF91AF919F918F917F916F915F911B
:100580004F913F912F910F900FBE0F901F90189594
:100590001F920F920FB60F9211242F933F934F93F8
:1005A0005F936F937F938F939F93AF93BF93EF93DB
:1005B000FF93E0917800F0917900309709F0099568
:1005C000FF91EF91BF91AF919F918F917F916F912B
:1005D0005F914F913F912F910F900FBE0F901F9001
:1005E0001895843048F514BC813071F028F08230C1
:1005F00099F08330C9F022C085B5877F85BD85B568
:100600008F7B85BD80E0089585B5877F85BD85B5E5
:10061000806485BD80E0089585B5886085BD85B519
:100620008F7B85BD80E0089585B5886085BD85B5E3
:10063000806485BD80E0089581E0089581E008959B
:10064000883070F480937E0090917D00913051F459
:1006500095B5987F892B95B5892B85BD80E0089548
:1006600081E0089580E0089588B7806488BF89B7E5
:10067000806489BF80E0089595B580917E00892BC4
:1006800085BD81E080937D0080E0089585B5887FF9
:1006900085BD10927D0080E00895CF92DF92EF92A9
:1006A000FF92CF93C82FE0917E00F0E0EE0FFF1F86
:1006B000E959FF4F6081718180E090E00E941B0644
:1006C00020E030E04AEF55E40E947A056B017C019E
:1006D0006C2F70E080E090E00E941D06A70196015B
:1006E0000E947A050E94EC05619560937C0064BDD0
:1006F00080E0CF91FF90EF90DF90CF90089500972A
:1007000021F090937B0080937A0008951F920F92BE
:100710000FB60F9211242F933F934F935F936F93D4
:100720007F938F939F93AF93BF93EF93FF938091AA
:100730007A0090917B00892B41F080917C0084BDF0
:10074000E0917A00F0917B000995FF91EF91BF91C4
:10075000AF919F918F917F916F915F914F913F9159
:100760002F910F900FBE0F901F9018950F931F930E
:10077000CF93C82F8B010E940002B8018C2F0E94DA
:100780006302CF911F910F9108950E942D02089549
:100790000E944802089521E021C0822F90E0FC01D0
:1007A000EE0FFF1FE158FF4F40815181FC01EE0F1A
:1007B000FF1FEE0FFF1FEE0FFF1FE05FFD4F648175
:1007C00075814617570749F0880F991FFC01E158BA
:1007D000FF4F4F5F5F4F518340832F5F80916200D7
:1007E0002817D8F208950F931F93CF930E943C03CC
:1007F00032C00C2F10E0F801EE0FFF1FEE0FFF1FAD
:10080000EE0FFF1FE05FFD4F24813581F801EE0FF1
:10081000FF1FE158FF4F8081918128173907A1F40C
:10082000F801EE0FFF1FEE0FFF1FEE0FFF1FE05F3F
:10083000FD4F0190F081E02D0995000F111FF80187
:10084000E158FF4F11821082CF5F01C0C1E080915B
:100850006200C81770F2809147018130B9F3CF91DF
:100860001F910F9108950E944603809147018823AC
:10087000E1F308959C01E62FF0E0E455FE4F8081FE
:1008800081111FC0E42FF0E0E85BFE4F80818111F1
:100890001AC090E010C0E92FF0E0EE0FFF1FEE0F3E
:1008A000FF1FEE0FFF1FE05FFD4F40815181421798
:1008B000530759F09F5F80916200981760F380E0C2
:1008C000089587E0089587E0089587E00895AF923E
:1008D000BF92DF92EF92FF920F931F93CF93DF931C
:1008E000009709F441C0643608F040C0443608F06F
:1008F0003FC0D09062000D2D10E0F801EE0FFF1FF9
:10090000EE0FFF1FEE0FFF1FE05FFD4F0190F08124
:10091000E02DEF2B79F57901D42FC62F5C010E94D1
:100920003A04873049F1F801EE0FFF1FEE0FFF1F69
:10093000EE0FFF1FE05FFD4FB182A082D383F582EF
:10094000E482F782E682C283ED2FF0E0E85BFE4F9F
:10095000D0826C2F70E0FB01E455FE4FD082D3941F
:10096000D092620080E009C087E007C087E005C040
:1009700087E003C087E001C087E0DF91CF911F913E
:100980000F91FF90EF90DF90BF90AF900895EF929E
:10099000FF920F931F93CF93DF9351E07CC071E0E0
:1009A000750F472F74C0252F30E0F901EE0FFF1FA0
:1009B000EE0FFF1FEE0FFF1FE05FFD4FA381842F9F
:1009C00090E0FC01EE0FFF1FEE0FFF1FEE0FFF1F69
:1009D000E05FFD4FE381AE1708F058C0F901EE0F5C
:1009E000FF1FEE0FFF1FEE0FFF1FE05FFD4FC081E7
:1009F000D181DC01AA0FBB1FAA0FBB1FAA0FBB1F0F
:100A0000A05FBD4F0D911C9111971183008311962A
:100A1000DC93CE93220F331F21583F4FE9011881F9
:100A2000880F991FEC01C158DF4F7E0188819981A1
:100A3000E90199838883812F90E0E7019983888376
:100A40008481958114962D913C911597358324834B
:100A500015969C938E931497228112968C911297DF
:100A6000828312962C931297828190E084559E4F38
:100A7000EC015883C22FD0E0C455DE4F48838381F8
:100A800013969C911397938313968C934F5F4617FD
:100A900008F489CF572F60916200561708F47FCF72
:100AA000DF91CF911F910F91FF90EF900895CF9319
:100AB00080914701811115C00E94F10284E00E94DB
:100AC000200381E00E944D030E943403C82F8BEC69
:100AD00093E00E947F0381E0809347010E94C70456
:100AE00001C0C7E0C111C7E08C2FCF91089580935A
:100AF000470108950E948E050C946F060E946806B7
:100B000058F00E94610640F029F45F3F29F00C94F0
:100B1000580651110C94A3060C945E060E948006A0
:100B200068F39923B1F3552391F3951B550BBB271C
:100B3000AA2762177307840738F09F5F5F4F220F61
:100B4000331F441FAA1FA9F335D00E2E3AF0E0E858
:100B500032D091505040E695001CCAF72BD0FE2FA2
:100B600029D0660F771F881FBB1F26173707480736
:100B7000AB07B0E809F0BB0B802DBF01FF279358EE
:100B80005F4F3AF09E3F510578F00C9458060C9454
:100B9000A3065F3FE4F3983ED4F386957795679577
:100BA000B795F7959F5FC9F7880F911D9695879523
:100BB00097F90895E1E0660F771F881FBB1F621742
:100BC00073078407BA0720F0621B730B840BBA0B00
:100BD000EE1F88F7E09508950E94880688F09F57D9
:100BE00098F0B92F9927B751B0F0E1F0660F771F51
:100BF000881F991F1AF0BA95C9F714C0B13091F047
:100C00000E94A206B1E008950C94A206672F782FE7
:100C10008827B85F39F0B93FCCF38695779567950B
:100C2000B395D9F73EF490958095709561957F4F77
:100C30008F4F9F4F0895E89409C097FB3EF490951D
:100C40008095709561957F4F8F4F9F4F9923A9F0A5
:100C5000F92F96E9BB279395F69587957795679534
:100C6000B795F111F8CFFAF4BB0F11F460FF1BC078
:100C70006F5F7F4F8F4F9F4F16C0882311F096E90B
:100C800011C0772321F09EE8872F762F05C06623B9
:100C900071F096E8862F70E060E02AF09A95660F72
:100CA000771F881FDAF7880F9695879597F908952B
:100CB00097F99F6780E870E060E008959FEF80EC0F
:100CC000089500240A9416161706180609060895B2
:100CD00000240A9412161306140605060895092E18
:100CE0000394000C11F4882352F0BB0F40F4BF2B87
:100CF00011F460FF04C06F5F7F4F8F4F9F4F0895C7
:100D000057FD9058440F551F59F05F3F71F04795BC
:100D1000880F97FB991F61F09F3F79F087950895A1
:100D2000121613061406551FF2CF4695F1DF08C0C0
:100D3000161617061806991FF1CF869571056105DD
:100D400008940895E894BB2766277727CB0197F985
:060D50000895F894FFCFA6
:100D5600F303010104010500000100080020004022
:040D66000080000009
:00000001FF
