S0100000736D616C6C206F732E73726563F9
S11300000C942A000C9400050C9427050C944E05BE
S11300100C9447000C94D0050C9447000C944700B2
S11300200C9447000C94A1050C9447000C9475059E
S11300300C9447000C9447000C9447000C94470020
S11300400C9447000C9447000C9447000C94470010
S11300500C94470011241FBECFE5D8E0DEBFCDBF0E
S113006010E0A0E6B0E0EEE9F1E102C005900D92E7
S1130070AC37B107D9F725E0ACE7B0E001C01D9279
S1130080AB34B207E1F70E9452030C94CD080C94F0
S1130090000080E00E941403089581E00E9414038C
S11300A0089582E00E94950881E00E94EF0208957D
S11300B081E597E0909361008093600080E00E9466
S11300C0C50880E00E94D30280E00E94EF0281E034
S11300D00E94EF0208950E946D0280E00E94B10226
S11300E0853061F480E197E0909361008093600033
S11300F081E00E94C50880E00E94D002089580E05B
S11301000E94D60281E00E94D6022CE231E041E056
S113011061E089E490E00E948C0724EF31E043E041
S113012062E08DE490E00E948C0728E833E142E02D
S113013063E081E590E00E948C070E947C0868E5FA
S113014070E080E00E94C102789480E00E94D002B6
S113015080E00E9478028BE690E00E94C80808952F
S1130160E0916000F09161000995FACF0F931F931D
S1130170CF93DF931F92CDB7DEB7082F10E0F801BD
S1130180EE0FFF1FE00FF11FEE0FFF1FE458FF4FAC
S11301906181AE014F5F5F4F80810E940E048981AF
S11301A0813059F4F801EE0FFF1FE00FF11FEE0F3D
S11301B0FF1FE458FF4F85830AC0F801EE0FFF1FAD
S11301C0E00FF11FEE0FFF1FE458FF4F15820F9051
S11301D0DF91CF911F910F9108950F931F93CF93A8
S11301E0DF931F92CDB7DEB7082F10E0F801EE0FB2
S11301F0FF1FE00FF11FEE0FFF1FE458FF4F618157
S1130200AE014F5F5F4F80810E940E04898181306F
S113021061F4F801EE0FFF1FE00FF11FEE0FFF1F57
S1130220E458FF4F82E085830BC0F801EE0FFF1FF7
S1130230E00FF11FEE0FFF1FE458FF4F85E08583A9
S11302400F90DF91CF911F910F9108950F931F93FA
S1130250CF93DF931F92CDB7DEB7082F10E0F801DC
S1130260EE0FFF1FE00FF11FEE0FFF1FE458FF4FCB
S11302706181AE014F5F5F4F80810E940E048981CE
S1130280813061F4F801EE0FFF1FE00FF11FEE0F54
S1130290FF1FE458FF4F83E085830BC0F801EE0F86
S11302A0FF1FE00FF11FEE0FFF1FE458FF4F85E023
S11302B085830F90DF91CF911F910F9108950F9334
S11302C01F93CF93DF931F92CDB7DEB7082F10E0B3
S11302D0F801EE0FFF1FE00FF11FEE0FFF1FE458B0
S11302E0FF4F6181AE014F5F5F4F80810E940E041A
S11302F08981813039F5C801880F991FFC01E00F0D
S1130300F11FEE0FFF1FE458FF4F23812F5F23835C
S1130310FC01E00FF11FEE0FFF1FE159FF4F838136
S1130320281780F0F801EE0FFF1FDF01A00FB11FA7
S1130330AA0FBB1FA458BF4F13961C921397FD011D
S113034084E085830F90DF91CF911F910F910895E1
S11303500F931F93CF93DF931F92CDB7DEB7082F70
S113036010E0F801EE0FFF1FE00FF11FEE0FFF1F6B
S1130370E458FF4F6181AE014F5F5F4F80810E945F
S11303800E0489818130B1F4C801880F991FFC01E2
S1130390E00FF11FEE0FFF1FE458FF4F2381FC0114
S11303A0E00FF11FEE0FFF1FE458FF4F81E0820FB3
S11303B0838335C0C801880F991FFC01E00FF11F2A
S11303C0EE0FFF1FE458FF4F2381FC01E00FF11FE4
S11303D0EE0FFF1FE159FF4F8381281760F0F801EA
S11303E0EE0FFF1FE00FF11FEE0FFF1FE458FF4F4A
S11303F085E085830AC0F801EE0FFF1FE00FF11FAF
S1130400EE0FFF1FE458FF4F1582F801EE0FFF1F98
S1130410E00FF11FEE0FFF1FE458FF4F13820F9000
S1130420DF91CF911F910F9108950F931F93CF9355
S1130430DF931F92CDB7DEB7082F10E0F801EE0F5F
S1130440FF1FE00FF11FEE0FFF1FE458FF4F618104
S1130450AE014F5F5F4F80810E940E04898181113C
S11304600AC0F801EE0FFF1FE00FF11FEE0FFF1F90
S1130470E458FF4F15820F90DF91CF911F910F9198
S11304800895282F30E0F901EE0FFF1FE20FF31F4C
S1130490EE0FFF1FE458FF4F9581923091F028F43E
S11304A0992349F0913051F00895943081F060F02F
S11304B0953081F008950E94B60008950E94ED00E1
S11304C008950E94260108950E945F0108950E94E4
S11304D0A80108950E9415020895CF93C0E004C0B6
S11304E08C2F0E944102CF5FCC23D1F3CF9108958A
S11304F0EF92FF920F931F93CF93DF93811127C045
S1130500C82FD0E07E01EE0CFF1CF701EC0FFD1F9D
S1130510EE0FFF1FE159FF4F1181008140E0612F71
S1130520802F0E94590341E0612F802F0E94930382
S1130530F701EC0FFD1FEE0FFF1FE458FF4F15826C
S11305401382148200831183811103C003C086E0E7
S113055001C086E0DF91CF911F910F91FF90EF9042
S1130560089581110CC090E0FC01EE0FFF1FE80F0D
S1130570F91FEE0FFF1FE458FF4F8581089586E0B1
S113058008950F931F93CF93C82F8B010E94790472
S1130590B8018C2F0E94DF04CF911F910F91089511
S11305A00E94A30408950E94C1040895CF93DF9389
S11305B0823088F4C82FD0E0FE01EE0FFF1FEB5805
S11305C0FF4F618141E080810E945903CE57DF4F84
S11305D093E0988301C085E0DF91CF910895CF9394
S11305E0DF938230D8F4C82FD0E0FE01EE57FF4FDE
S11305F08081823079F4FE01EE0FFF1FEB58FF4F2C
S1130600618140E080810E949303CE57DF4F93E0E5
S1130610988307C0833021F480E003C085E001C0E3
S113062085E0DF91CF910895CF93DF93823040F539
S1130630C82FD0E0FE01EE57FF4F8081823079F45D
S1130640FE01EE0FFF1FEB58FF4F618140E08081F8
S11306500E949303CE57DF4F93E0988314C08330F6
S113066089F4FE01EE0FFF1FEB58FF4F618141E05B
S113067080810E949303CE57DF4F92E0988303C09A
S113068085E001C085E0DF91CF9108950E94FC05CB
S113069008950E94640608950E949D0608950E948C
S11306A0D60608950E947F000E94B00080E090E08A
S11306B008956830A0F581110BC08AB350E002C0E0
S11306C0440F551F6A95E2F7482B4ABB80E0089512
S11306D0813059F487B350E002C0440F551F6A9526
S11306E0E2F7482B47BB80E00895823059F484B385
S11306F050E002C0440F551F6A95E2F7482B44BBF3
S113070080E00895833069F481B350E002C0440F5F
S1130710551F6A95E2F7482B41BB80E0089581E0BC
S1130720089582E00895683008F074C081111BC0F8
S1130730413061F42BB381E090E002C0880F991F2F
S11307406A95E2F7822B8BBB80E008952BB381E09E
S113075090E002C0880F991F6A95E2F78095822382
S11307608BBB80E008958130D9F4413061F428B323
S113077081E090E002C0880F991F6A95E2F7822B0E
S113078088BB80E0089528B381E090E002C0880F20
S1130790991F6A95E2F78095822388BB80E00895CB
S11307A08230D9F4413061F425B381E090E002C095
S11307B0880F991F6A95E2F7822B85BB80E0089524
S11307C025B381E090E002C0880F991F6A95E2F793
S11307D08095822385BB80E008958330E9F441301D
S11307E061F422B381E090E002C0880F991F6A95FA
S11307F0E2F7822B82BB80E0089522B381E090E08F
S113080002C0880F991F6A95E2F78095822382BB04
S113081080E0089581E0089582E00895683008F04A
S113082064C0811117C079B381E090E09C01062E69
S113083002C0220F331F0A94E2F7872F90E082232D
S1130840932302C0969587956A95E2F7FA0180830F
S113085080E008958130B9F476B381E090E09C01A2
S1130860062E02C0220F331F0A94E2F7872F90E06E
S11308708223932302C0969587956A95E2F7FA013D
S1130880808380E008958230B9F473B381E090E00E
S11308909C01062E02C0220F331F0A94E2F7872F11
S11308A090E08223932302C0969587956A95E2F798
S11308B0FA01808380E008958330C9F470B381E045
S11308C090E09C01062E02C0220F331F0A94E2F727
S11308D0872F90E08223932302C0969587956A958B
S11308E0E2F7FA01808380E0089581E0089582E0D0
S11308F00895833011F1E82FF0E0E758FF4F90811D
S11309009430E9F0882319F0813061F01AC085B77A
S1130910826085BF8FB787608FBF81E0809384003A
S113092080E0089585B7886085BF8FB780688FBFE2
S113093081E08093850080E0089584E0089584E058
S1130940089580E008958330B1F0E82FF0E0EC578B
S1130950FF4F9081992389F0882319F0813031F079
S11309600EC08BB780648BBF80E008958BB780681E
S11309708BBF80E0089584E0089584E0089580E0CA
S113098008958330B1F0E82FF0E0EC57FF4F9081E9
S1130990992389F0882319F0813031F00EC08BB788
S11309A08F7B8BBF80E008958BB78F778BBF80E000
S11309B0089584E0089584E0089580E008950F93F5
S11309C01F93CF93C82F8B010E94C104811114C0BF
S11309D0C13049F018F0C23059F00EC010938C00A9
S11309E000938B0009C010938A000093890004C00F
S11309F01093880000938700CF911F910F91089561
S1130A001F920F920FB60F9211242F933F934F937F
S1130A105F936F937F938F939F93AF93BF93EF9362
S1130A20FF93E0918B00F0918C000995FF91EF9179
S1130A30BF91AF919F918F917F916F915F914F91F2
S1130A403F912F910F900FBE0F901F9018951F92FA
S1130A500F920FB60F9211242F933F934F935F93EE
S1130A606F937F938F939F93AF93BF93EF93FF9372
S1130A70E0918900F0918A000995FF91EF91BF916F
S1130A80AF919F918F917F916F915F914F913F9122
S1130A902F910F900FBE0F901F9018951F920F92D9
S1130AA00FB60F9211242F933F934F935F936F933D
S1130AB07F938F939F93AF93BF93EF93FF93E091B3
S1130AC08700F09188000995FF91EF91BF91AF9154
S1130AD09F918F917F916F915F914F913F912F9152
S1130AE00F900FBE0F901F9018951F920F920FB684
S1130AF00F9211242F933F934F935F936F937F93A0
S1130B008F939F93AF93BF93EF93FF93E0918D00E7
S1130B10F0918E00309721F0099580916B0082BF8F
S1130B20FF91EF91BF91AF919F918F917F916F91C1
S1130B305F914F913F912F910F900FBE0F901F9097
S1130B4018951F920F920FB60F9211242F933F9373
S1130B504F935F936F937F938F939F93AF93BF93C1
S1130B60EF93FF93E0918F00F0919000309739F06C
S1130B70099580916700909168009DBD8CBDFF919F
S1130B80EF91BF91AF919F918F917F916F915F9101
S1130B904F913F912F910F900FBE0F901F9018957A
S1130BA01F920F920FB60F9211242F933F934F93DE
S1130BB05F936F937F938F939F93AF93BF93EF93C1
S1130BC0FF93E0919100F0919200309721F0099504
S1130BD08091630084BDFF91EF91BF91AF919F918C
S1130BE08F917F916F915F914F913F912F910F90D2
S1130BF00FBE0F901F901895833008F055C08130B8
S1130C00F1F018F08230C1F151C080916A0088304F
S1130C1009F44EC0882309F44DC0EAE6F0E081816E
S1130C2082BF83B7806883BF8381813019F489B719
S1130C30816089BF81E08093970080E0089580916E
S1130C4066008830C9F18823C9F1E6E6F0E08181C5
S1130C5092819DBD8CBD8FB588608FBD8FB584603A
S1130C608FBD8381813019F489B7846089BF81E0A5
S1130C708093960080E0089580916200883001F1AD
S1130C80882301F1E2E6F0E0818184BD85B58068C6
S1130C9085BD8381813019F489B7806489BF81E07F
S1130CA08093950080E0089583E0089580E008959E
S1130CB083E0089583E0089583E0089583E0089530
S1130CC083E0089583E00895833038F5813079F026
S1130CD018F08230B9F023C080919700882309F17D
S1130CE080916A008823F9F083BF80E008958091A1
S1130CF096008823D1F0809166008823C1F08EBDD0
S1130D0080E0089580919500882399F08091620095
S1130D10882389F085BD80E0089583E0089580E00C
S1130D20089583E0089583E0089583E0089583E0BF
S1130D30089583E0089583E00895833038F5813081
S1130D4079F018F08230B9F023C08091970088239D
S1130D5009F180916A008823F9F013BE80E00895B8
S1130D60809196008823D1F0809166008823C1F099
S1130D701EBC80E0089580919500882399F08091AD
S1130D806200882389F015BC80E0089583E008950B
S1130D9080E0089583E0089583E0089583E0089552
S1130DA083E0089583E0089583E00895633060F458
S1130DB0009761F0E62FF0E0EE0FFF1FE357FF4FBF
S1130DC09183808380E0089583E0089583E008950B
S1130DD021E021C0822F90E0FC01EE0FFF1FE656B8
S1130DE0FF4F40815181FC01EE0FFF1FEE0FFF1FEB
S1130DF0EE0FFF1FE55DFD4F6481758146175707B0
S1130E0049F0880F991FFC01E656FF4F4F5F5F4F73
S1130E10518340832F5F80916E002817D8F2089584
S1130E200F931F93CF9380E00E94490332C00C2F8D
S1130E3010E0F801EE0FFF1FEE0FFF1FEE0FFF1F74
S1130E40E55DFD4F24813581F801EE0FFF1FE65665
S1130E50FF4F8081918128173907A1F4F801EE0F23
S1130E60FF1FEE0FFF1FEE0FFF1FE55DFD4F01900B
S1130E70F081E02D0995000F111FF801E656FF4F90
S1130E8011821082CF5F01C0C1E080916E00C8174B
S1130E9070F2809162018130B9F3CF911F910F916B
S1130EA0089580E00E944C0305C0E0919800F09101
S1130EB099000995809162018823B9F308959C01F2
S1130EC0E62FF0E0E953FE4F808181111FC0E42F2B
S1130ED0F0E0ED59FE4F808181111AC090E010C0FE
S1130EE0E92FF0E0EE0FFF1FEE0FFF1FEE0FFF1FC5
S1130EF0E55DFD4F408151814217530759F09F5FD3
S1130F0080916E00981760F380E0089587E008955B
S1130F1087E0089587E00895AF92BF92DF92EF9241
S1130F20FF920F931F93CF93DF93009709F441C06F
S1130F30643608F040C0443608F03FC0D0906E00DC
S1130F400D2D10E0F801EE0FFF1FEE0FFF1FEE0F47
S1130F50FF1FE55DFD4F0190F081E02DEF2B79F54A
S1130F607901D42FC62F5C010E945F07873049F1B5
S1130F70F801EE0FFF1FEE0FFF1FEE0FFF1FE55DE1
S1130F80FD4FB182A082D383F582E482F782E682A8
S1130F90C283ED2FF0E0ED59FE4FD0826C2F70E04C
S1130FA0FB01E953FE4FD082D394D0926E0080E0CF
S1130FB009C087E007C087E005C087E003C087E079
S1130FC001C087E0DF91CF911F910F91FF90EF90C7
S1130FD0DF90BF90AF900895EF92FF920F931F930D
S1130FE0CF93DF9351E07CC071E0750F472F74C03D
S1130FF0252F30E0F901EE0FFF1FEE0FFF1FEE0F5C
S1131000FF1FE55DFD4FA381842F90E0FC01EE0FEF
S1131010FF1FEE0FFF1FEE0FFF1FE55DFD4FE38186
S1131020AE1708F058C0F901EE0FFF1FEE0FFF1FB7
S1131030EE0FFF1FE55DFD4FC081D181DC01AA0FDA
S1131040BB1FAA0FBB1FAA0FBB1FA55DBD4F0D91F0
S11310501C911197118300831196DC93CE93220F78
S1131060331F26563F4FE9011881880F991FEC0161
S1131070C656DF4F7E0188819981E901998388836F
S1131080812F90E0E7019983888384819581149668
S11310902D913C9115973583248315969C938E93BB
S11310A01497228112968C911297828312962C9314
S11310B01297828190E089539E4FEC015883C22F8E
S11310C0D0E0C953DE4F4883838113969C911397D4
S11310D0938313968C934F5F461708F489CF572F49
S11310E060916E00561708F47FCFDF91CF911F9166
S11310F00F91FF90EF900895CF9380916201811139
S11311000EC00E94460360E088EE96E00E944F0302
S1131110C82F81E0809362010E94EC0701C0C7E000
S1131120C111C7E08C2FCF91089590916201913045
S113113041F590E0FC01E953FE4FE081EE2319F103
S1131140F0E0EE0FFF1FEE0FFF1FEE0FFF1FE55D38
S1131150FD4FA381B0E0AD59BE4F1C9211821082A5
S11311601382158214821282FC01E953FE4F10820D
S11311700E94EC0780916E00815080936E0080E0A5
S1131180089587E0089587E00895809362010895A3
S111119090939900809398000895F894FFCFEF
S113119E100708000000080000000383000101038B
S10F11AE030114140000000001020202FE
S9030000FC
