:100000000C942A000C9407030C9430030C945903AD
:100010000C9447000C9417040C9447000C94470070
:100020000C9447000C9447000C9447000C94470034
:100030000C9447000C9447000C9447000C94470024
:100040000C9447000C9447000C9447000C94470014
:100050000C94470011241FBECFE5D8E0DEBFCDBF12
:1000600010E0A0E6B0E0E6ECFEE002C005900D92E4
:10007000AE37B107D9F724E0AEE7B0E001C01D927A
:10008000A437B207E1F70E9460010C9461070C9459
:10009000000080916D0090916E000E945A010895B9
:1000A00080916F00909170000E945A01089586E639
:1000B00090E00E94160182E690E00E9431010895CE
:1000C00086E690E00E94310182E690E00E941601EF
:1000D0000895CF93DF9388E196E090936100809339
:1000E000600082E00E942A0680E690E00E942D06D1
:1000F000CDE6D0E0888199810E9453018A819B815D
:100100000E945301DF91CF91089583EC95E0909385
:1001100061008093600081E00E942A0687E590E0FC
:100120000E942D06089580916D0090916E000E94AE
:100130004C01811138C080916F00909170000E9435
:100140004C01811132C00E943C05811130C02CE26B
:1001500031E041E061E089E490E00E945C058111BA
:1001600028C024EF31E043E062E080E590E00E94A7
:100170005C05811120C069E670E086E690E00E948F
:10018000E90081111AC065E870E082E690E00E9403
:10019000E900811114C0789486E690E00E9416016F
:1001A00081110FC0089581E0089581E0089581E0F4
:1001B000089581E0089581E0089581E0089581E047
:1001C000089581E00895E0916000F0916100099543
:1001D000FACFCF93DF930097F9F061157105F1F035
:1001E000FC0120812330E1F4EB018181823049F46C
:1001F00080E00E949102BE0180E00E94F40280E053
:1002000012C0833079F481E00E949102BE0181E046
:100210000E94F40280E007C083E005C083E003C0D1
:1002200081E001C081E0DF91CF910895009799F0BE
:10023000FC012081233089F48181823029F480E01F
:100240000E94BE0280E00895833049F481E00E945C
:10025000BE0280E0089583E0089581E0089581E082
:100260000895009799F0FC012081233089F4818161
:10027000823029F480E00E94D90280E00895833022
:1002800049F481E00E94D90280E0089583E0089556
:1002900081E0089581E0089541E0692F0E9469019D
:1002A000811185E0089540E0692F0E94E0018111ED
:1002B00085E00895692F0E945702811185E0089515
:1002C0000E949300811102C00E94E30080E090E050
:1002D0000895813011F130F08230D1F1833009F48A
:1002E00052C06CC041110DC02AB381E090E002C041
:1002F000880F991F6A95E2F7809582238ABB80E078
:1003000008952AB381E090E002C0880F991F6A9592
:10031000E2F7822B8ABB80E0089541110DC027B31C
:1003200081E090E002C0880F991F6A95E2F78095FE
:10033000822387BB80E0089527B381E090E002C06C
:10034000880F991F6A95E2F7822B87BB80E008959A
:1003500041110DC024B381E090E002C0880F991FC5
:100360006A95E2F78095822384BB80E0089524B3E8
:1003700081E090E002C0880F991F6A95E2F7822B16
:1003800084BB80E0089541110DC021B381E090E06D
:1003900002C0880F991F6A95E2F78095822381BB7E
:1003A00080E0089521B381E090E002C0880F991F9A
:1003B0006A95E2F7822B81BB80E0089582E0089580
:1003C000813011F130F08230D1F1833009F452C024
:1003D0006CC041110DC02BB381E090E002C0880FCA
:1003E000991F6A95E2F7809582238BBB80E0089580
:1003F0002BB381E090E002C0880F991F6A95E2F765
:10040000822B8BBB80E0089541110DC028B381E0A1
:1004100090E002C0880F991F6A95E2F780958223C9
:1004200088BB80E0089528B381E090E002C0880F87
:10043000991F6A95E2F7822B88BB80E008954111ED
:100440000DC025B381E090E002C0880F991F6A9526
:10045000E2F78095822385BB80E0089525B381E093
:1004600090E002C0880F991F6A95E2F7822B85BB46
:1004700080E0089541110DC022B381E090E002C0F8
:10048000880F991F6A95E2F78095822382BB80E0EE
:10049000089522B381E090E002C0880F991F6A9509
:1004A000E2F7822B82BB80E0089582E008958130DC
:1004B00091F028F08230D9F0833029F130C02BB38D
:1004C00081E090E002C0880F991F6A95E2F78227C9
:1004D0008BBB80E0089528B381E090E002C0880FD4
:1004E000991F6A95E2F7822788BB80E0089525B3BB
:1004F00081E090E002C0880F991F6A95E2F7822799
:1005000085BB80E0089522B381E090E002C0880FAF
:10051000991F6A95E2F7822782BB80E0089582E006
:100520000895833038F5813079F018F08230B9F0D1
:1005300023C0789440E062E083E00E94690185B7BF
:10054000826085BF80E00895789440E063E083E0B6
:100550000E94690185B78C6085BF80E0089578941A
:1005600040E062E081E00E94690184B7806884BF56
:1005700080E0089582E0089582E008958330A8F431
:10058000813049F018F0823059F011C08BB7806487
:100590008BBF80E008958BB780688BBF80E00895A3
:1005A0008BB780628BBF80E0089582E0089582E07F
:1005B00008958330A8F4813049F018F0823059F062
:1005C00011C08BB78F7B8BBF80E008958BB78F777F
:1005D0008BBF80E008958BB78F7D8BBF80E008953F
:1005E00082E0089582E00895833068F46115710512
:1005F00061F0E82FF0E0EE0FFF1FE258FF4F71832C
:10060000608380E0089582E0089583E008951F925A
:100610000F920FB60F9211242F933F934F935F9336
:100620006F937F938F939F93AF93BF93EF93FF93BA
:10063000E0917E00F0917F00309709F00995FF91DD
:10064000EF91BF91AF919F918F917F916F915F914A
:100650004F913F912F910F900FBE0F901F901895C3
:100660001F920F920FB60F9211242F933F934F9327
:100670005F936F937F938F939F93AF93BF93EF930A
:10068000FF93E0918000F0918100309709F0099587
:10069000FF91EF91BF91AF919F918F917F916F915A
:1006A0005F914F913F912F910F900FBE0F901F9030
:1006B00018951F920F920FB60F9211242F933F930C
:1006C0004F935F936F937F938F939F93AF93BF935A
:1006D000EF93FF93E0918200F0918300309709F04F
:1006E0000995FF91EF91BF91AF919F918F917F916C
:1006F0006F915F914F913F912F910F900FBE0F908F
:100700001F901895843048F514BC813071F028F0A2
:10071000823099F08330C9F022C085B5877F85BDCE
:1007200085B58F7B85BD80E0089585B5877F85BDC4
:1007300085B5806485BD80E0089585B5886085BDF8
:1007400085B58F7B85BD80E0089585B5886085BDC2
:1007500085B5806485BD80E0089581E0089581E0DD
:100760000895883070F480938800909187009130CC
:1007700051F495B5987F892B95B5892B85BD80E07F
:10078000089581E0089580E0089588B7806488BF67
:1007900089B7806489BF80E0089595B5809188000D
:1007A000892B85BD81E08093870080E0089585B521
:1007B000887F85BD1092870080E00895CF92DF92F8
:1007C000EF92FF92CF93C82FE0918800F0E0EE0FF8
:1007D000FF1FEF58FF4F6081718180E090E00E9421
:1007E000D30620E030E04AEF55E40E9432066B0168
:1007F0007C016C2F70E080E090E00E94D506A7019C
:1008000096010E9432060E94A406619560938600BC
:1008100064BD80E0CF91FF90EF90DF90CF9008957E
:10082000009721F0909385008093840008951F9293
:100830000F920FB60F9211242F933F934F935F9314
:100840006F937F938F939F93AF93BF93EF93FF9398
:100850008091840090918500892B41F080918600E1
:1008600084BDE0918400F09185000995FF91EF919E
:10087000BF91AF919F918F917F916F915F914F91B8
:100880003F912F910F900FBE0F901F9018959C01D4
:10089000E62FF0E0E854FE4F808181111BC0E42F69
:1008A000F0E0EC5AFE4F8081811116C091E00CC03F
:1008B00086E0989FF0011124E45EFD4F4081518154
:1008C0004217530759F09F5F80916C00981780F38F
:1008D00080E0089587E0089587E0089587E008950F
:1008E0006F927F929F92AF92BF92CF92DF92EF92E0
:1008F000FF920F931F93CF93DF9351E083C0AA24FD
:10090000A394A50E4A2D7AC0252F30E0F901EE0FF1
:10091000FF1FE20FF31FEE0FFF1FE45EFD4F738119
:10092000842F90E0FC01EE0FFF1FE80FF91FEE0F80
:10093000FF1FE45EFD4F6381671708F05EC0390159
:10094000660C771CF301E20FF31FEE0FFF1FE45E4E
:10095000FD4F00811181BC01660F771FDB01A80FDD
:10096000B91FAA0FBB1FA45EBD4FED90FC9011975D
:10097000F182E08211961C930E93830105571F4F5D
:10098000E8019880EB01C557DF4F7E01C880D98010
:10099000E801D982C882092D10E0E7011983088394
:1009A000048115811496ED90FC901597F582E482F0
:1009B00015961C930E931497028112961C91129710
:1009C000128312960C931297E280F12CE701C8541F
:1009D000DE4F588310E008541E4FE801488313810E
:1009E0001396EC911397E301C20FD31FCC0FDD1FB9
:1009F000C45EDD4FEB83FD0113834F5F4B1508F49D
:100A000083CF5A2DB0906C005B1508F478CFDF913E
:100A1000CF911F910F91FF90EF90DF90CF90BF90FB
:100A2000AF909F907F906F90089541E020C0242F59
:100A300030E0C901880F991FFC01E557FF4F608125
:100A40007181FC01E20FF31FEE0FFF1FE45EFD4F0B
:100A5000848195816817790749F0220F331FF901C6
:100A6000E557FF4F6F5F7F4F718360834F5F8091CA
:100A70006C004817E0F20895CF93809153018111E3
:100A800015C00E94820384E00E94B10381E00E94AD
:100A9000DE030E94C503C82F85E195E00E94100483
:100AA000C11105C081E08093530101C0C7E0C111AD
:100AB000C7E08C2FCF910895AF92BF92CF92DF9273
:100AC000FF920F931F93CF93DF93009709F444C0D5
:100AD000643608F043C0662309F442C0443608F087
:100AE00041C0D0916C000D2F10E0F801EE0FFF1FF8
:100AF000E00FF11FEE0FFF1FE45EFD4F0190F0814C
:100B0000E02DEF2B89F550915301513079F56901B2
:100B1000C42FF62E5C010E944704873049F186E01D
:100B2000809FF001819FF00D1124E45EFD4FB182A2
:100B3000A082C383D582C482F282EC2FF0E0EC5A0B
:100B4000FE4FD083EF2DF0E0E854FE4FD083DF5FFF
:100B5000D0936C0080E00DC087E00BC087E009C037
:100B600087E007C087E005C087E003C087E001C0D9
:100B700087E0DF91CF911F910F91FF90DF90CF9091
:100B8000BF90AF9008950F931F93CF9380916A0009
:100B900090916B00019731F40E94700410926B00E9
:100BA00010926A00E0918900F0918A00309729F054
:100BB000099510928A00109289000E94CD0330C0DE
:100BC0002C2F30E0C901880F991FFC01E20FF31FA1
:100BD000EE0FFF1FE45EFD4F44815581FC01E55798
:100BE000FF4F808191814817590799F48901000FBF
:100BF000111FF801E20FF31FEE0FFF1FE45EFD4F20
:100C00000190F081E02D0995F801E557FF4F118221
:100C10001082CF5F01C0C1E080916C00C81780F2E4
:100C2000809153018130B9F3CF911F910F910895B5
:100C30000E94D703E0918900F0918A00309729F053
:100C4000099510928A001092890080915301823098
:100C5000E1F3089580935301089590938A0080935F
:100C6000890008950E9446060C9427070E942007D9
:100C700058F00E94190740F029F45F3F29F00C94C6
:100C8000100751110C945B070C9416070E9438074B
:100C900068F39923B1F3552391F3951B550BBB27AB
:100CA000AA2762177307840738F09F5F5F4F220FF0
:100CB000331F441FAA1FA9F335D00E2E3AF0E0E8E7
:100CC00032D091505040E695001CCAF72BD0FE2F31
:100CD00029D0660F771F881FBB1F261737074807C5
:100CE000AB07B0E809F0BB0B802DBF01FF2793587D
:100CF0005F4F3AF09E3F510578F00C9410070C942A
:100D00005B075F3FE4F3983ED4F38695779567954C
:100D1000B795F7959F5FC9F7880F911D96958795B1
:100D200097F90895E1E0660F771F881FBB1F6217D0
:100D300073078407BA0720F0621B730B840BBA0B8E
:100D4000EE1F88F7E09508950E94400788F09F57AE
:100D500098F0B92F9927B751B0F0E1F0660F771FDF
:100D6000881F991F1AF0BA95C9F714C0B13091F0D5
:100D70000E945A07B1E008950C945A07672F782F04
:100D80008827B85F39F0B93FCCF38695779567959A
:100D9000B395D9F73EF490958095709561957F4F06
:100DA0008F4F9F4F0895E89409C097FB3EF49095AC
:100DB0008095709561957F4F8F4F9F4F9923A9F034
:100DC000F92F96E9BB279395F695879577956795C3
:100DD000B795F111F8CFFAF4BB0F11F460FF1BC007
:100DE0006F5F7F4F8F4F9F4F16C0882311F096E99A
:100DF00011C0772321F09EE8872F762F05C0662348
:100E000071F096E8862F70E060E02AF09A95660F00
:100E1000771F881FDAF7880F9695879597F90895B9
:100E200097F99F6780E870E060E008959FEF80EC9D
:100E3000089500240A941616170618060906089540
:100E400000240A9412161306140605060895092EA6
:100E50000394000C11F4882352F0BB0F40F4BF2B15
:100E600011F460FF04C06F5F7F4F8F4F9F4F089555
:100E700057FD9058440F551F59F05F3F71F047954B
:100E8000880F97FB991F61F09F3F79F08795089530
:100E9000121613061406551FF2CF4695F1DF08C04F
:100EA000161617061806991FF1CF8695710561056C
:100EB00008940895E894BB2766277727CB0197F914
:060EC0000895F894FFCF35
:100EC600C30503030000030200000100010207023C
:0E0ED600020000010008002000400080000023
:00000001FF
