S0100000736D616C6C206F732E73726563F9
S11300000C942A000C949B020C94C4020C94ED02F0
S11300100C9447000C94AB030C9447000C944700D9
S11300200C9447000C9447000C9447000C94470030
S11300300C9447000C9447000C9447000C94470020
S11300400C9447000C9447000C9447000C94470010
S11300500C94470011241FBECFE5D8E0DEBFCDBF0E
S113006010E0A0E6B0E0E8E1FEE002C005900D92E9
S1130070A637B107D9F724E0A6E7B0E001C01D9286
S1130080AC36B207E1F70E94F4000C940A070C9412
S1130090000080916500909166000E94EE00089532
S11300A080916700909168000E94EE00089580E0BE
S11300B00E94EA0381E00E94ED03089580E00E941B
S11300C0ED0381E00E94EA030895CF93DF9381EC6E
S11300D095E0909361008093600082E00E94D305D4
S11300E08EE590E00E94D605C5E6D0E0888199812E
S11300F00E94E7008A819B810E94E700DF91CF91F3
S113010008958CE695E0909361008093600081E00F
S11301100E94D30587E590E00E94D605089580915A
S11301206500909166000E94E000811133C08091C7
S11301306700909168000E94E00081112DC00E9428
S1130140E50481112BC02CE231E041E061E089E457
S113015090E00E940505811123C024EF31E043E0C3
S113016062E080E590E00E94050581111BC065E610
S113017070E00E94DB03811117C061E870E081E048
S11301800E94DB03811112C078940E94EA0381115A
S11301900FC0089581E0089581E0089581E00895F5
S11301A081E0089581E0089581E0089581E0089553
S11301B081E00895E0916000F09161000995FACF23
S11301C041E0692F0E94FD00811185E0089541E01E
S11301D0692F0E947401811185E00895692F0E949E
S11301E0EB01811185E008950E948F00811102C006
S11301F00E94DA0080E090E00895813011F130F03F
S11302008230D1F1833009F452C06CC041110DC069
S11302102AB381E090E002C0880F991F6A95E2F743
S1130220809582238ABB80E008952AB381E090E020
S113023002C0880F991F6A95E2F7822B8ABB80E07F
S1130240089541110DC027B381E090E002C0880FEA
S1130250991F6A95E2F78095822387BB80E0089511
S113026027B381E090E002C0880F991F6A95E2F7F6
S1130270822B87BB80E0089541110DC024B381E037
S113028090E002C0880F991F6A95E2F78095822357
S113029084BB80E0089524B381E090E002C0880F1D
S11302A0991F6A95E2F7822B84BB80E0089541117F
S11302B00DC021B381E090E002C0880F991F6A95B8
S11302C0E2F78095822381BB80E0089521B381E029
S11302D090E002C0880F991F6A95E2F7822B81BBD8
S11302E080E0089582E00895813011F130F0823089
S11302F0D1F1833009F452C06CC0413069F42BB39E
S113030081E090E002C0880F991F6A95E2F780951A
S113031082238BBB80E008952BB381E090E002C080
S1130320880F991F6A95E2F7822B8BBB80E00895B2
S1130330413069F428B381E090E002C0880F991F2E
S11303406A95E2F78095822388BB80E0089528B3FC
S113035081E090E002C0880F991F6A95E2F7822B32
S113036088BB80E00895413069F425B381E090E0D2
S113037002C0880F991F6A95E2F78095822385BB96
S113038080E0089525B381E090E002C0880F991FB2
S11303906A95E2F7822B85BB80E00895413069F4C9
S11303A022B381E090E002C0880F991F6A95E2F7BA
S11303B08095822382BB80E0089522B381E090E09F
S11303C002C0880F991F6A95E2F7822B82BB80E0F6
S11303D0089582E00895813091F028F08230D9F0B8
S11303E0833029F130C02BB381E090E002C0880F44
S11303F0991F6A95E2F782278BBB80E0089528B3A2
S113040081E090E002C0880F991F6A95E2F7822785
S113041088BB80E0089525B381E090E002C0880F96
S1130420991F6A95E2F7822785BB80E0089522B37D
S113043081E090E002C0880F991F6A95E2F7822755
S113044082BB80E0089582E00895833038F58130DE
S113045079F018F08230B9F023C0789440E062E07B
S113046083E00E94FD0085B7826085BF80E0089527
S1130470789440E063E083E00E94FD0085B78C60DF
S113048085BF80E00895789440E062E081E00E94B6
S1130490FD0084B7806884BF80E0089582E00895F9
S11304A082E008958330A8F4813049F018F0823056
S11304B059F011C08BB780648BBF80E008958BB76F
S11304C080688BBF80E008958BB780628BBF80E02B
S11304D0089582E0089582E008958330A8F481307D
S11304E049F018F0823059F011C08BB78F7B8BBF65
S11304F080E008958BB78F778BBF80E008958BB72A
S11305008F7D8BBF80E0089582E0089582E0089596
S1130510833068F46115710561F0E82FF0E0EE0FA7
S1130520FF1FEA58FF4F7183608380E0089582E0E3
S1130530089583E008951F920F920FB60F9211242D
S11305402F933F934F935F936F937F938F939F93D7
S1130550AF93BF93EF93FF93E0917600F091770010
S1130560309709F00995FF91EF91BF91AF919F9159
S11305708F917F916F915F914F913F912F910F9048
S11305800FBE0F901F9018951F920F920FB60F92E7
S113059011242F933F934F935F936F937F938F9384
S11305A09F93AF93BF93EF93FF93E0917800F09103
S11305B07900309709F00995FF91EF91BF91AF91C0
S11305C09F918F917F916F915F914F913F912F9167
S11305D00F900FBE0F901F9018951F920F920FB699
S11305E00F9211242F933F934F935F936F937F93B5
S11305F08F939F93AF93BF93EF93FF93E0917A0010
S1130600F0917B00309709F00995FF91EF91BF912C
S1130610AF919F918F917F916F915F914F913F9196
S11306202F910F900FBE0F901F901895843048F5AE
S113063014BC813071F028F0823099F08330C9F015
S113064022C085B5877F85BD85B58F7B85BD80E05C
S1130650089585B5877F85BD85B5806485BD80E0B7
S1130660089585B5886085BD85B58F7B85BD80E09F
S1130670089585B5886085BD85B5806485BD80E0B5
S1130680089581E0089581E00895883070F480939E
S1130690800090917F00913051F495B5987F892B1B
S11306A095B5892B85BD80E0089581E0089580E0AB
S11306B0089588B7806488BF89B7806489BF80E063
S11306C0089595B580918000892B85BD81E0809344
S11306D07F0080E0089585B5887F85BD10927F00F6
S11306E080E00895CF92DF92EF92FF92CF93C82FCC
S11306F0E0918000F0E0EE0FFF1FE759FF4F6081AB
S1130700718180E090E00E947C0620E030E04AEFB6
S113071055E40E94DB056B017C016C2F70E080E0E6
S113072090E00E947E06A70196010E94DB050E94CC
S11307304D06619560937E0064BD80E0CF91FF908B
S1130740EF90DF90CF900895009721F090937D0073
S113075080937C0008951F920F920FB60F9211247C
S11307602F933F934F935F936F937F938F939F93B5
S1130770AF93BF93EF93FF9380917C0090917D00A2
S1130780892B41F080917E0084BDE0917C00F09142
S11307907D000995FF91EF91BF91AF919F918F914A
S11307A07F916F915F914F913F912F910F900FBE69
S11307B00F901F9018950F931F93CF93C82F8B0101
S11307C00E942502B8018C2F0E948802CF911F91AC
S11307D00F9108950E94520208950E946D02089597
S11307E09C01E62FF0E0E055FE4F808181111BC093
S11307F0E42FF0E0E45BFE4F8081811116C091E0AC
S11308000CC086E0989FF0011124EC5EFD4F4081FE
S113081051814217530759F09F5F809164009817E4
S113082080F380E0089587E0089587E0089587E0E5
S113083008956F927F929F92AF92BF92CF92DF9270
S1130840EF92FF920F931F93CF93DF9351E083C0F6
S1130850AA24A394A50E4A2D7AC0252F30E0F901CD
S1130860EE0FFF1FE20FF31FEE0FFF1FEC5EFD4FB5
S11308707381842F90E0FC01EE0FFF1FE80FF91F36
S1130880EE0FFF1FEC5EFD4F6381671708F05EC03B
S11308903901660C771CF301E20FF31FEE0FFF1F03
S11308A0EC5EFD4F00811181BC01660F771FDB01F7
S11308B0A80FB91FAA0FBB1FAC5EBD4FED90FC90F3
S11308C01197F182E08211961C930E9383010D57C8
S11308D01F4FE8019880EB01CD57DF4F7E01C880A0
S11308E0D980E801D982C882092D10E0E701198373
S11308F00883048115811496ED90FC901597F58278
S1130900E48215961C930E931497028112961C91FF
S11309101297128312960C931297E280F12CE7013E
S1130920C055DE4F588310E000551E4FE801488340
S113093013811396EC911397E301C20FD31FCC0FCD
S1130940DD1FCC5EDD4FEB83FD0113834F5F4B1541
S113095008F483CF5A2DB09064005B1508F478CF67
S1130960DF91CF911F910F91FF90EF90DF90CF9087
S1130970BF90AF909F907F906F90089541E020C00A
S1130980242F30E0C901880F991FFC01ED57FF4F58
S113099060817181FC01E20FF31FEE0FFF1FEC5E1B
S11309A0FD4F848195816817790749F0220F331F21
S11309B0F901ED57FF4F6F5F7F4F718360834F5F86
S11309C0809164004817E0F20895CF9380914B0121
S11309D0811115C00E94160384E00E94450381E042
S11309E00E9472030E945903C82F8EEB94E00E9468
S11309F0A403C11105C081E080934B0101C0C7E08D
S1130A00C111C7E08C2FCF910895AF92BF92CF92BE
S1130A10DF92FF920F931F93CF93DF93009709F414
S1130A2044C0643608F043C0662309F442C0443627
S1130A3008F041C0D09164000D2F10E0F801EE0FD2
S1130A40FF1FE00FF11FEE0FFF1FEC5EFD4F019043
S1130A50F081E02DEF2B89F550914B01513079F560
S1130A606901C42FF62E5C010E94F003873049F11E
S1130A7086E0809FF001819FF00D1124EC5EFD4F14
S1130A80B182A082C383D582C482F282EC2FF0E0CB
S1130A90E45BFE4FD083EF2DF0E0E055FE4FD083B2
S1130AA0DF5FD093640080E00DC087E00BC087E077
S1130AB009C087E007C087E005C087E003C087E07E
S1130AC001C087E0DF91CF911F910F91FF90DF90DC
S1130AD0CF90BF90AF9008950F931F93CF938091C1
S1130AE0620090916300019731F40E9419041092FE
S1130AF0630010926200E0918100F09182003097CF
S1130B0029F0099510928200109281000E946103DD
S1130B1030C02C2F30E0C901880F991FFC01E20F6F
S1130B20F31FEE0FFF1FEC5EFD4F44815581FC0166
S1130B30ED57FF4F808191814817590799F4890136
S1130B40000F111FF801E20FF31FEE0FFF1FEC5E01
S1130B50FD4F0190F081E02D0995F801ED57FF4F0D
S1130B6011821082CF5F01C0C1E080916400C81778
S1130B7080F280914B018130B9F3CF911F910F9195
S1130B8008950E946B03E0918100F09182003097F8
S1130B9029F00995109282001092810080914B01F6
S1130BA08230E1F3089580934B010895909382007D
S1130BB08093810008950E94EF050C94D0060E9452
S1130BC0C90658F00E94C20640F029F45F3F29F09C
S1130BD00C94B90651110C9404070C94BF060E949E
S1130BE0E10668F39923B1F3552391F3951B550B53
S1130BF0BB27AA2762177307840738F09F5F5F4FEC
S1130C00220F331F441FAA1FA9F335D00E2E3AF02A
S1130C10E0E832D091505040E695001CCAF72BD042
S1130C20FE2F29D0660F771F881FBB1F2617370793
S1130C304807AB07B0E809F0BB0B802DBF01FF27C5
S1130C4093585F4F3AF09E3F510578F00C94B906E3
S1130C500C9404075F3FE4F3983ED4F386957795AC
S1130C606795B795F7959F5FC9F7880F911D96957E
S1130C70879597F90895E1E0660F771F881FBB1FDA
S1130C80621773078407BA0720F0621B730B840B87
S1130C90BA0BEE1F88F7E09508950E94E90688F0E4
S1130CA09F5798F0B92F9927B751B0F0E1F0660F2C
S1130CB0771F881F991F1AF0BA95C9F714C0B1306D
S1130CC091F00E940307B1E008950C940307672F85
S1130CD0782F8827B85F39F0B93FCCF3869577959C
S1130CE06795B395D9F73EF4909580957095619585
S1130CF07F4F8F4F9F4F0895E89409C097FB3EF4B0
S1130D0090958095709561957F4F8F4F9F4F992354
S1130D10A9F0F92F96E9BB279395F69587957795D2
S1130D206795B795F111F8CFFAF4BB0F11F460FF92
S1130D301BC06F5F7F4F8F4F9F4F16C0882311F0EA
S1130D4096E911C0772321F09EE8872F762F05C0FE
S1130D50662371F096E8862F70E060E02AF09A9599
S1130D60660F771F881FDAF7880F9695879597F98E
S1130D70089597F99F6780E870E060E008959FEF19
S1130D8080EC089500240A9416161706180609061E
S1130D90089500240A9412161306140605060895ED
S1130DA0092E0394000C11F4882352F0BB0F40F475
S1130DB0BF2B11F460FF04C06F5F7F4F8F4F9F4FB5
S1130DC0089557FD9058440F551F59F05F3F71F037
S1130DD04795880F97FB991F61F09F3F79F087959E
S1130DE00895121613061406551FF2CF4695F1DF27
S1130DF008C0161617061806991FF1CF86957105B7
S1130E00610508940895E894BB2766277727CB01EA
S10B0E1097F90895F894FFCF4F
S1130E186C0501000101040105000001000800201F
S1090E2800400080000000
S9030000FC
