:100000000C942A000C940D0F0C94400F0C94730F59
:100010000C9447000C94B40D0C9447000C944700CA
:100020000C9447000C9447000C9447000C94470034
:100030000C9447000C9447000C9447000C94470024
:100040000C9447000C9447000C9447000C94470014
:100050000C94470011241FBECFE5D8E0DEBFCDBF12
:1000600011E0A0E6B0E0EAEFF9E202C005900D92DF
:10007000A038B107D9F715E0A0E8B1E001C01D92A2
:10008000AE37B107E1F70E94B0140C94FB140C9446
:100090000000EF92FF920F931F937B018C0120E0F1
:1000A00030E040E05FE40E94CB0288238CF0C8017E
:1000B000B70120E030E040E05FE40E94C1010E940F
:1000C00059039B01AC01205030404040504806C0CD
:1000D000C801B7010E9459039B01AC01B901CA01D3
:1000E0001F910F91FF90EF900895A0E0B0E0EBE733
:1000F000F0E00C94C414DC012B01FA019C919230C5
:1001000008F439C1EB018881823008F433C194309E
:1001100069F4843009F02FC111969C91119789815F
:10012000981709F428C1A0E6B0E025C1843009F48D
:1001300021C18230A9F4923009F01DC19A01AD01AC
:1001400088E0EA010990AE01E90109929E0181501F
:10015000C1F7E201898111969C918923818308C1AD
:10016000923009F407C112962D903C901397EB0141
:100170008A819B811496AD90BD90CD90DC901797AD
:10018000EC80FD800E811F819101281B390BB90184
:1001900037FF04C066277727621B730B6032710537
:1001A0000CF061C0121613066CF537014801062EDB
:1001B00004C096948794779467940A94D2F721E0C8
:1001C00030E040E050E004C0220F331F441F551FB1
:1001D0006A95D2F721503040404050402E213F21B7
:1001E00040235123211531054105510521F021E01E
:1001F00030E040E050E079018A01E628F72808293C
:1002000019293CC0232BD1F1260E371E350146019A
:10021000062E04C096948794779467940A94D2F734
:1002200021E030E040E050E004C0220F331F441FC3
:10023000551F6A95D2F721503040404050402A2146
:100240003B214C215D21211531054105510521F04E
:1002500021E030E040E050E059016A01A628B728CB
:10026000C828D9280BC0821593052CF01C01AA249C
:10027000BB24650103C0EE24FF24870111969C91E5
:10028000D20111968C91981709F445C0992339F041
:10029000A80197012A193B094C095D0906C0A6016E
:1002A00095012E193F09400B510B57FD08C01182D3
:1002B0003382228224833583468357831DC081E0A5
:1002C00081833382228288279927DC01821B930B4A
:1002D000A40BB50B84839583A683B7830DC0220F2F
:1002E000331F441F551F24833583468357838281E0
:1002F000938101979383828324813581468157813D
:10030000DA01C9010197A109B1098F5F9F4FAF4F72
:10031000BF4328F30BC0918333822282EA0CFB1C7B
:100320000C1D1D1DE482F5820683178383E0808304
:10033000248135814681578157FF1AC0C901AA27F8
:1003400097FDA095BA2F81709070A070B0705695EF
:10035000479537952795822B932BA42BB52B848318
:100360009583A683B7838281938101969383828349
:10037000DF0101C0D201CD01CDB7DEB7E2E10C94BF
:10038000E014A0E2B0E0E7ECF1E00C94D014698353
:100390007A838B839C832D833E834F835887E9E048
:1003A000EE2EF12CEC0EFD1ECE010196B7010E943F
:1003B0004A058E010F5E1F4FCE010596B8010E94BF
:1003C0004A058A8991E089278A8BC701B801AE0165
:1003D000475E5F4F0E9475000E947504A096E6E09C
:1003E0000C94EC14A0E2B0E0E8EFF1E00C94D0142F
:1003F00069837A838B839C832D833E834F835887C5
:10040000F9E0EF2EF12CEC0EFD1ECE010196B701A6
:100410000E944A058E010F5E1F4FCE010596B8015E
:100420000E944A05C701B801AE01475E5F4F0E94B6
:1004300075000E947504A096E6E00C94EC14A8E107
:10044000B0E0E5E2F2E00C94CC1469837A838B830C
:100450009C832D833E834F835887B9E0EB2EF12C8C
:10046000EC0EFD1ECE010196B7010E944A058E01D9
:100470000F5E1F4FCE010596B8010E944A052985DF
:10048000223008F47EC03989323010F4B8017CC0C3
:100490008A859A8989278A87243011F0223031F49D
:1004A000231709F06EC060E670E06EC0343039F496
:1004B0001D861E861F86188A1C861B8604C0323045
:1004C00021F484E08987B7015FC02B853C858B8947
:1004D0009C89281B390B3C872B87ED84FE840F8574
:1004E0001889AD88BE88CF88D88CEA14FB040C0527
:1004F0001D0540F4EE0CFF1C001F111F2150304061
:100500003C872B8720E030E040E050E080E090E046
:10051000A0E0B0E460E070E0EA14FB040C051D0507
:1005200040F0282B392B4A2B5B2BEA18FB080C09CF
:100530001D09B695A79597958795EE0CFF1C001F92
:10054000111F6F5F7F4F6F31710531F7DA01C901FC
:100550008F779070A070B07080349105A105B105BF
:1005600061F427FD0AC0E114F1040105110529F029
:10057000205C3F4F4F4F5F4F20782D873E874F873E
:10058000588BBE01675F7F4FCB010E947504689650
:10059000EAE00C94E814A8E1B0E0E1EDF2E00C949C
:1005A000D01469837A838B839C832D833E834F830E
:1005B000588789E0E82EF12CEC0EFD1ECE01019645
:1005C000B7010E944A058E010F5E1F4FCE010596AE
:1005D000B8010E944A058985823040F089898230BD
:1005E00028F0C701B8010E94C20501C08FEF6896CC
:1005F000E6E00C94EC14A8E0B0E0E1E0F3E00C9449
:10060000CD149B01AC0183E08983DA01C9018827FD
:10061000B7FD83959927AA27BB27B82E2115310549
:100620004105510519F482E089833AC08823A9F075
:10063000203080E0380780E0480780E8580729F438
:1006400060E070E080E09FEC30C0EE24FF24870182
:10065000E21AF30A040B150B02C079018A018EE13C
:10066000C82ED12CDC82CB82ED82FE820F831887CC
:10067000C801B7010E94260401971816190684F4D0
:10068000082E04C0EE0CFF1C001F111F0A94D2F7A5
:10069000ED82FE820F831887C81AD90ADC82CB82CA
:1006A000BA82CE0101960E9475042896E9E00C9466
:1006B000E914ACE0B0E0EFE5F3E00C94D414698306
:1006C0007A838B839C83CE010196BE016B5F7F4F43
:1006D0000E944A058D81823061F1823050F1843070
:1006E00021F48E81882351F12EC02F81388537FD6A
:1006F00020C06E812F3131051CF06623F9F023C034
:100700008EE190E0821B930B29853A854B855C85B1
:1007100004C056954795379527958A95D2F7662355
:10072000B1F050954095309521953F4F4F4F5F4F19
:100730000EC020E030E040E050E009C02FEF3FEF76
:100740004FEF5FE704C020E030E040E050E8B9013F
:10075000CA012C96E2E00C94F014A8E0B0E0E3EBC0
:10076000F3E00C94CC147B018C01611571058105BB
:10077000910519F482E0898360C083E089838EE16A
:10078000C82ED12CDC82CB82ED82FE820F831887AB
:10079000C801B7010E942604FC013197F7FF3BC056
:1007A000222733272E1B3F0B57016801022E04C05E
:1007B000D694C794B794A7940A94D2F740E050E037
:1007C00060E070E081E090E0A0E0B0E004C0880F5D
:1007D000991FAA1FBB1F2A95D2F70197A109B1093A
:1007E0008E219F21A023B1230097A105B10521F0FF
:1007F00041E050E060E070E04A295B296C297D29E6
:100800004D835E836F8378878EE190E08E1B9F0B14
:100810009C838B8312C0309781F00E2E04C0EE0CA7
:10082000FF1C001F111F0A94D2F7ED82FE820F8376
:100830001887CE1ADF0ADC82CB821A82CE0101969B
:100840000E9475042896EAE00C94E814EF92FF9257
:100850000F931F937B018C0180E0E81680E0F8067F
:1008600081E0080780E0180788F48FEFE816F104AC
:100870000105110531F028F088E090E0A0E0B0E03B
:1008800017C080E090E0A0E0B0E012C080E0E81681
:1008900080E0F80680E0080781E0180728F088E18A
:1008A00090E0A0E0B0E004C080E190E0A0E0B0E023
:1008B00020E230E040E050E0281B390B4A0B5B0B94
:1008C00004C016950795F794E7948A95D2F7F70137
:1008D000E859FF4F8081281B310941095109C9019D
:1008E0001F910F91FF90EF900895DF92EF92FF928A
:1008F0000F931F93FC01E480F58006811781D1805E
:100900008081823048F480E090E0A0E1B0E0E82A05
:10091000F92A0A2B1B2BA5C0843009F49FC0823012
:1009200021F4EE24FF24870105C0E114F104010540
:10093000110519F4E0E0F0E096C0628173819FEF49
:10094000623879070CF05BC022E83FEF261B370BBB
:100950002A3131052CF020E030E040E050E02AC0A0
:10096000B801A701022E04C0769567955795479563
:100970000A94D2F781E090E0A0E0B0E004C0880FD4
:10098000991FAA1FBB1F2A95D2F70197A109B10988
:100990008E219F21A023B1230097A105B10521F04D
:1009A00081E090E0A0E0B0E09A01AB01282B392B68
:1009B0004A2B5B2BDA01C9018F779070A070B07061
:1009C00080349105A105B10539F427FF09C0205CE9
:1009D0003F4F4F4F5F4F04C0215C3F4F4F4F5F4F22
:1009E000E0E0F0E02030A0E03A07A0E04A07A0E411
:1009F0005A0710F0E1E0F0E079018A0127C0603881
:100A0000710564F5FB01E158FF4FD801C7018F77ED
:100A10009070A070B07080349105A105B10539F4D3
:100A2000E7FE0DC080E490E0A0E0B0E004C08FE3FA
:100A300090E0A0E0B0E0E80EF91E0A1F1B1F17FFB0
:100A400005C016950795F794E794319687E01695BB
:100A50000795F794E7948A95D1F705C0EE24FF2413
:100A60008701EFEFF0E06E2F679566276795902F6F
:100A70009F77D794DD24D7948E2F8695492F462BC8
:100A8000582F5D29B701CA011F910F91FF90EF9078
:100A9000DF900895FC01DB01408151812281622FAA
:100AA0006F7770E0221F2227221F9381892F880FE2
:100AB000822B282F30E0991F9927991F11969C931C
:100AC000119721153105A9F54115510561057105EC
:100AD00011F482E037C082E89FEF13969C938E93C7
:100AE00012979A01AB0167E0220F331F441F551F75
:100AF0006A95D1F783E08C930DC0220F331F441FFA
:100B0000551F12968D919C911397019713969C9364
:100B10008E931297203080E0380780E0480780E409
:100B2000580758F314962D933D934D935C93179764
:100B300008952F3F310579F441155105610571057F
:100B400019F484E08C93089564FF03C081E08C93D2
:100B500012C01C9210C02F57304013963C932E9316
:100B6000129783E08C9387E0440F551F661F771F11
:100B70008A95D1F7706414964D935D936D937C9331
:100B8000179708951F93DC01FB019C91923008F4A4
:100B900047C08081823008F443C0943051F41196EC
:100BA0001C91843099F58181682F70E0611B710977
:100BB0003FC0843021F0923031F48230B9F181812C
:100BC000882389F12DC011961C9111978230F1F084
:100BD00081811817D9F412962D913C911397828137
:100BE00093818217930794F028173907BCF0149665
:100BF0008D919D910D90BC91A02D248135814681D0
:100C00005781281739074A075B0718F4112341F069
:100C10000AC082179307A407B50740F4112319F0FF
:100C200061E070E005C06FEF7FEF02C060E070E050
:100C3000CB011F910895DF93CF930F92CDB7DEB70D
:100C400019828091A0048823D1F480E00E943F0C97
:100C5000898384E00E94B60C898381E00E943C0D68
:100C600089830E94E60C89838BE99BE00E949E0D9C
:100C70008981882331F481E08093A00402C087E059
:100C800089838981882311F087E0898389810F9086
:100C9000CF91DF910895DF93CF9300D0CDB7DEB72A
:100CA0001A828091A004813009F080C081E089839C
:100CB00071C08981282F30E0C901880F991F820FE8
:100CC000931F880F991FFC01ED57FE4F8081882FDD
:100CD00090E0FC01E45CFB4F10828981282F30E01A
:100CE000C901880F991F820F931F880F991FFC015C
:100CF000E058FE4F118210828981282F30E0C9010F
:100D0000880F991F820F931F880F991FFC01ED57C1
:100D1000FE4F10828981282F30E0C901880F991F6A
:100D2000820F931F880F991FFC01EC57FE4F118211
:100D300010828981282F30E0C901880F991F820F06
:100D4000931F0196880F991FFC01E058FE4F808188
:100D5000882F90E0FC01E852FC4F10828981282FF7
:100D600030E0C901880F991F820F931F0196880FE9
:100D7000991FFC01E058FE4F10828981882F90E076
:100D8000880F991FFC01EF55FB4F1182108289815A
:100D90008F5F8983909168018981891708F489CFD1
:100DA00081E0809368011092A00402C087E08A83EA
:100DB0008A810F900F90CF91DF910895DF93CF93A9
:100DC000CDB7DEB727970FB6F894DEBF0FBECDBF05
:100DD0009B838A836C834D833F832E8319828A8110
:100DE0009B81009709F48AC08C81843608F086C004
:100DF0008C81882309F482C08D81843608F07EC0FE
:100E000080916801282F30E0C901880F991F820F57
:100E1000931F880F991FFC01E058FE4F808191813C
:100E2000009709F06BC08091A004813009F066C082
:100E30008A819B816C814D810E949E09873009F4D3
:100E40005DC080916801282F30E0C901880F991F8B
:100E5000820F931F880F991FFC01E058FE4F8A8173
:100E60009B819183808380916801282F30E0C901A4
:100E7000880F991F820F931F880F991FFC01ED5750
:100E8000FE4F8D81808380916801282F30E0C90159
:100E9000880F991F820F931F880F991FFC01EC5731
:100EA000FE4F8E819F819183808380916801282FDE
:100EB00030E0C901880F991F820F931F0196880F98
:100EC000991FFC01E058FE4F8C8180838D81882F13
:100ED00090E020916801FC01E45CFB4F20838C8151
:100EE000882F90E020916801FC01E852FC4F20839C
:100EF000809168018F5F8093680102C087E08983D9
:100F0000898127960FB6F894DEBF0FBECDBFCF9173
:100F1000DF910895DF93CF9300D0CDB7DEB78A83FA
:100F200019828091A004813009F0A1C08A818823B0
:100F300009F49DC08A81843608F099C08A81882F7F
:100F400090E0FC01E852FC4F8081882309F48FC0B7
:100F50008A81882F90E0FC01E852FC4F8081282F85
:100F600030E0C901880F991F820F931F880F991FC6
:100F7000FC01ED57FE4F8081882F90E0FC01E45C7E
:100F8000FB4F10828A81882F90E0FC01E852FC4FD1
:100F90008081282F30E0C901880F991F820F931F8D
:100FA000880F991FFC01E058FE4F118210828A8140
:100FB000882F90E0FC01E852FC4F8081282F30E020
:100FC000C901880F991F820F931F880F991FFC0179
:100FD000ED57FE4F10828A81882F90E0FC01E85285
:100FE000FC4F8081282F30E0C901880F991F820FA4
:100FF000931F880F991FFC01EC57FE4F118210823E
:101000008A81882F90E0FC01E852FC4F8081282FD4
:1010100030E0C901880F991F820F931F0196880F36
:10102000991FFC01E058FE4F10828A81882F90E0C2
:10103000FC01E852FC4F108280916801882F90E0FB
:101040009C01215030408A81882F90E0FC01E852B9
:10105000FC4F8081882F90E02817390711F00E94FB
:10106000EB098091680181508093680102C087E09C
:10107000898389810F900F90CF91DF910895DF933D
:10108000CF9300D000D00F92CDB7DEB78A836B83A9
:101090005D834C8319828091A004813009F0B8C02F
:1010A0008B81843608F0B4C08A81843608F0B0C0E1
:1010B0008A81882309F4ACC08A81882F90E0FC01E2
:1010C000E852FC4F8081882309F4A2C08A81882FCE
:1010D00090E0FC01E852FC4F8081282F30E0C901EC
:1010E000880F991F820F931F880F991FFC01ED57DE
:1010F000FE4F90818B81981709F464C08B81882FF3
:1011000090E0FC01E45CFB4F8081882309F057C02C
:101110008A81882F90E0FC01E852FC4F8081282FC3
:1011200030E0C901880F991F820F931F880F991F04
:10113000FC01ED57FE4F8081882F90E0FC01E45CBC
:10114000FB4F10828A81882F90E0FC01E852FC4F0F
:101150008081282F30E0C901880F991F820F931FCB
:10116000880F991FFC01ED57FE4F8B8180838A8188
:10117000882F90E0FC01E852FC4F8081282F30E05E
:10118000C901880F991F820F931F880F991FFC01B7
:10119000EC57FE4F8C819D81918380838B81282F1A
:1011A00030E08A81882F90E0FC01E852FC4F80817A
:1011B000F901E45CFB4F80830E94EB092BC087E0C0
:1011C000898328C08A81882F90E0FC01E852FC4F77
:1011D0008081282F30E0C901880F991F820F931F4B
:1011E000880F991FFC01EC57FE4F8C819D819183E4
:1011F00080838B81282F30E08A81882F90E0FC014A
:10120000E852FC4F8081F901E45CFB4F808302C00F
:1012100087E0898389810F900F900F900F900F9036
:10122000CF91DF910895DF93CF930F92CDB7DEB7C3
:101230008091690190916A018130910531F40E9499
:10124000EB0910926A0110926901809169059091F1
:101250006A05009749F0E0916905F0916A050995E2
:1012600010926A05109269050E94110D42C081E03A
:1012700089833AC08981282F30E0C901880F991FDE
:10128000820F931F880F991FFC01EC57FE4F20819E
:1012900031818981882F90E0880F991FFC01EF55DB
:1012A000FB4F8081918128173907D9F48981282F34
:1012B00030E0C901880F991F820F931F880F991F73
:1012C000FC01E058FE4F0190F081E02D09958981E5
:1012D000882F90E0880F991FFC01EF55FB4F11827A
:1012E000108289818F5F8983909168018981891734
:1012F00008F28091A004813009F4B9CF0F90CF910A
:10130000DF910895DF93CF93CDB7DEB70E94280D0C
:101310008091690590916A05009749F0E09169050F
:10132000F0916A05099510926A05109269058091FD
:10133000A0048230E1F3CF91DF910895DF93CF9342
:1013400000D000D000D0CDB7DEB79C838B836D83F7
:101350004E831A828D81882F90E0FC01E852FC4F69
:101360008081882349F48E81882F90E0FC01E45C21
:10137000FB4F8081882319F087E08A8322C081E0B7
:1013800089831AC08981282F30E0C901880F991FED
:10139000820F931F880F991FFC01E058FE4F208198
:1013A00031818B819C812817390719F487E08A8362
:1013B00008C089818F5F898390916801898189172D
:1013C00008F38A8126960FB6F894DEBF0FBECDBF14
:1013D000CF91DF910895DF93CF9300D0CDB7DEB7E3
:1013E00081E08A839DC18A818F5F898390C18A81D0
:1013F000282F30E0C901880F991F820F931F880F93
:10140000991FFC01ED57FE4F40818981282F30E064
:10141000C901880F991F820F931F880F991FFC0124
:10142000ED57FE4F8081841708F06EC18A81282F06
:1014300030E0C901880F991F820F931F880F991FF1
:10144000FC01E058FE4F8081918190936D0580935F
:101450006C058A81482F50E08981282F30E0C9012E
:10146000880F991F820F931F880F991FFC01E05866
:10147000FE4F20813181CA01880F991F840F951F6B
:10148000880F991FFC01E058FE4F3183208389812A
:10149000282F30E040916C0550916D05C901880FEF
:1014A000991F820F931F880F991FFC01E058FE4F70
:1014B0005183408310926D0510926C058A81882FAC
:1014C00090E0880F991FFC01EF55FB4F80819181BF
:1014D00080936B058A81482F50E08981882F90E0A6
:1014E000880F991FFC01EF55FB4F20813181CA0104
:1014F000880F991FFC01EF55FB4F318320838981B1
:10150000282F30E080916B05482F50E0C901880FEB
:10151000991FFC01EF55FB4F5183408310926B05DF
:101520008A81282F30E0C901880F991F820F931FED
:10153000880F991FFC01EC57FE4F80819181909399
:101540007105809370058A81482F50E08981282F8A
:1015500030E0C901880F991F820F931F880F991FD0
:10156000FC01EC57FE4F20813181CA01880F991F81
:10157000840F951F880F991FFC01EC57FE4F318394
:1015800020838981282F30E04091700550917105AA
:10159000C901880F991F820F931F880F991FFC01A3
:1015A000EC57FE4F518340831092710510927005E5
:1015B0008A81282F30E0C901880F991F820F931F5D
:1015C0000196880F991FFC01E058FE4F808180939F
:1015D0006E058A81482F50E08981282F30E0C901AB
:1015E000880F991F820F931F0196880F991FFC0186
:1015F000E058FE4F2081CA01880F991F840F951F64
:101600000196880F991FFC01E058FE4F20838981C5
:10161000282F30E040916E05C901880F991F820F75
:10162000931F0196880F991FFC01E058FE4F4083DD
:101630008A81282F30E0C901880F991F820F931FDC
:101640000196880F991FFC01E058FE4F8081882F7A
:1016500090E0FC01E852FC4F8A8180838981282F29
:1016600030E0C901880F991F820F931F0196880FE0
:10167000991FFC01E058FE4F8081882F90E0FC010B
:10168000E852FC4F8981808310926E058A81282F51
:1016900030E0C901880F991F820F931F880F991F8F
:1016A000FC01ED57FE4F808180936F058A81482FA2
:1016B00050E08981282F30E0C901880F991F820FDF
:1016C000931F880F991FFC01ED57FE4F2081CA011F
:1016D000880F991F840F951F880F991FFC01ED57E4
:1016E000FE4F20838981282F30E040916F05C9018A
:1016F000880F991F820F931F880F991FFC01ED57C8
:10170000FE4F408310926F0589818F5F898390918E
:1017100068018981891708F46ACE8A818F5F8A837C
:10172000909168018A81891708F45DCE0F900F901F
:10173000CF91DF910895DF93CF930F92CDB7DEB7AE
:1017400081E0898335C08981882F90E0880F991FB7
:10175000FC01EF55FB4F408151818981282F30E0FA
:10176000C901880F991F820F931F880F991FFC01D1
:10177000EC57FE4F8081918148175907B1F089815C
:10178000282F30E0C901880F991FFC01EF55FB4F4E
:1017900080819181AC014F5F5F4FC901880F991F14
:1017A000FC01EF55FB4F5183408389818F5F898313
:1017B000909168018981891730F20F90CF91DF9164
:1017C0000895DF93CF930F92CDB7DEB789838981D8
:1017D0008093A0040F90CF91DF910895DF93CF9372
:1017E00000D0CDB7DEB79A83898389819A8190939F
:1017F0006A05809369050F900F90CF91DF9108954E
:10180000DF93CF9300D000D0CDB7DEB78A837C833F
:101810006B8319828A810E94EC0D89832B813C8124
:101820008A81B9010E94E20E898389810F900F900D
:101830000F900F90CF91DF910895DF93CF9300D059
:10184000CDB7DEB78A8319828A810E945C0E8983B4
:1018500089810F900F90CF91DF910895DF93CF93FF
:1018600000D0CDB7DEB78A8319828A810E949F0E8D
:10187000898389810F900F90CF91DF910895DF9335
:10188000CF9300D000D0CDB7DEB78A8319828A818A
:10189000843008F061C0E4E4F0E010828A81282FEF
:1018A00030E03C832B838B819C818130910521F139
:1018B0002B813C81223031052CF48B819C81009757
:1018C00061F047C02B813C812230310521F18B81B1
:1018D0009C818330910571F13CC0A5E4B0E0E5E462
:1018E000F0E08081877F8C93A5E4B0E0E5E4F0E050
:1018F00080818F7B8C9332C0A5E4B0E0E5E4F0E01A
:101900008081877F8C93A5E4B0E0E5E4F0E08081FE
:1019100080648C9323C0A5E4B0E0E5E4F0E080812E
:1019200088608C93A5E4B0E0E5E4F0E080818F7BF3
:101930008C9314C0A5E4B0E0E5E4F0E08081886019
:101940008C93A5E4B0E0E5E4F0E0808180648C93C2
:1019500005C081E0898302C081E0898389810F907D
:101960000F900F900F90CF91DF910895DF93CF9359
:1019700000D00F92CDB7DEB78B831A828B8188306F
:10198000E0F48B8180937605809177058130B9F4FE
:10199000E5E4F0E0808189838981887F8983909163
:1019A00076058981892B8983A5E4B0E0E5E4F0E040
:1019B00090818981892B8C9302C081E08A838A81FE
:1019C0000F900F900F90CF91DF910895DF93CF93F9
:1019D0000F92CDB7DEB71982A8E5B0E0E8E5F0E0F8
:1019E000808180648C93A9E5B0E0E9E5F0E0808136
:1019F00080648C9389810F90CF91DF910895DF935C
:101A0000CF930F92CDB7DEB71982A9E5B0E0E9E533
:101A1000F0E080818F7B8C9389810F90CF91DF9153
:101A20000895DF93CF930F92CDB7DEB71982A5E467
:101A3000B0E0E5E4F0E0908180917605892B8C930D
:101A400081E08093770589810F90CF91DF91089590
:101A5000DF93CF930F92CDB7DEB71982A5E4B0E044
:101A6000E5E4F0E08081887F8C931092770589818E
:101A70000F90CF91DF910895DF93CF93CDB7DEB76D
:101A800027970FB6F894DEBF0FBECDBF8F831E829F
:101A900080917605882F90E0880F991FFC01E55909
:101AA000FE4F80819181CC01A0E0B0E0BC01CD016E
:101AB0000E94AD03DC01CB01BC01CD0120E030E090
:101AC0004AEF55E40E941F02DC01CB0189839A830F
:101AD000AB83BC838F81882F90E0AA2797FDA095C8
:101AE000BA2FBC01CD010E94FB02DC01CB01BC017D
:101AF000CD0129813A814B815C810E941F02DC016A
:101B0000CB01BC01CD010E944900DC01CB018D83DA
:101B10008D81819580937305E4E4F0E080917305F5
:101B2000808381E0809372058E8127960FB6F894AA
:101B3000DEBF0FBECDBFCF91DF910895DF93CF936E
:101B400000D0CDB7DEB79A83898389819A810097C7
:101B500031F089819A8190937505809374050F9077
:101B60000F90CF91DF9108951F920F920FB60F92B1
:101B700011242F933F934F935F936F937F938F9392
:101B80009F93AF93BF93EF93FF93DF93CF93CDB723
:101B9000DEB78091740590917505009751F0E4E4EB
:101BA000F0E0809173058083E0917405F0917505F4
:101BB0000995CF91DF91FF91EF91BF91AF919F91E7
:101BC0008F917F916F915F914F913F912F910F90E6
:101BD0000FBE0F901F901895DF93CF9300D000D0C9
:101BE000CDB7DEB78A8319828A81833008F05AC064
:101BF0008A81282F30E03C832B838B819C8181302C
:101C00009105D1F02B813C812230310561F18B812E
:101C10009C81009709F043C0789483E062E040E043
:101C20000E94A60FA5E5B0E0E5E5F0E09081809187
:101C30007901892B8C9338C0789483E063E040E08D
:101C40000E94A60FA5E5B0E0E5E5F0E08081282F31
:101C500080917A01882F90E0880F991F880F991F33
:101C6000822B8C9321C0789481E062E040E00E9456
:101C7000A60FA4E5B0E0E4E5F0E08081282F809194
:101C80007B01882F90E00024969587950794969580
:101C900087950794982F802D822B8C9305C082E026
:101CA000898302C082E0898389810F900F900F9011
:101CB0000F90CF91DF910895DF93CF9300D000D0A4
:101CC000CDB7DEB78A8319828A81833070F58A8125
:101CD000282F30E03C832B838B819C8181309105C0
:101CE00089F02B813C8122303105A1F08B819C81D0
:101CF0000097C1F4ABE5B0E0EBE5F0E080818064F3
:101D00008C9315C0ABE5B0E0EBE5F0E08081806836
:101D10008C930DC0ABE5B0E0EBE5F0E08081806234
:101D20008C9305C082E0898302C082E08983898127
:101D30000F900F900F900F90CF91DF910895DF9348
:101D4000CF9300D000D0CDB7DEB78A8319828A81C5
:101D5000833070F58A81282F30E03C832B838B8180
:101D60009C818130910589F02B813C8122303105A5
:101D7000A1F08B819C810097C1F4ABE5B0E0EBE56D
:101D8000F0E080818F7B8C9315C0ABE5B0E0EBE594
:101D9000F0E080818F778C930DC0ABE5B0E0EBE590
:101DA000F0E080818F7D8C9305C082E0898302C042
:101DB00082E0898389810F900F900F900F90CF91CF
:101DC000DF910895DF93CF9300D000D0CDB7DEB779
:101DD0008A837C836B8319828A818330A0F48B8110
:101DE0009C81009769F08A81882F90E0880F991F65
:101DF000FC01E858FA4F8B819C819183808305C058
:101E000083E0898302C082E0898389810F900F90EB
:101E10000F900F90CF91DF9108951F920F920FB600
:101E20000F9211242F933F934F935F936F937F9360
:101E30008F939F93AF93BF93EF93FF93DF93CF93D2
:101E4000CDB7DEB78091780590917905009729F09C
:101E5000E0917805F09179050995CF91DF91FF9197
:101E6000EF91BF91AF919F918F917F916F915F9112
:101E70004F913F912F910F900FBE0F901F9018958B
:101E80001F920F920FB60F9211242F933F934F93EF
:101E90005F936F937F938F939F93AF93BF93EF93D2
:101EA000FF93DF93CF93CDB7DEB780917A05909102
:101EB0007B05009729F0E0917A05F0917B05099563
:101EC000CF91DF91FF91EF91BF91AF919F918F9152
:101ED0007F916F915F914F913F912F910F900FBE26
:101EE0000F901F9018951F920F920FB60F9211240A
:101EF0002F933F934F935F936F937F938F939F9312
:101F0000AF93BF93EF93FF93DF93CF93CDB7DEB73C
:101F100080917C0590917D05009729F0E0917C05EA
:101F2000F0917D050995CF91DF91FF91EF91BF91E0
:101F3000AF919F918F917F916F915F914F913F9161
:101F40002F910F900FBE0F901F901895DF93CF9396
:101F5000CDB7DEB72E970FB6F894DEBF0FBECDBF5C
:101F600089836A834B838981282F30E03E872D87C0
:101F70008D859E858130910509F444C02D853E856F
:101F8000223031052CF48D859E85009771F0C3C0F9
:101F90002D853E852230310509F462C08D859E85F0
:101FA0008330910509F489C0B6C08B818823B1F4D0
:101FB000AAE3B0E0EAE3F0E08081482F8A81282F8D
:101FC00030E081E090E0022E02C0880F991F0A9451
:101FD000E2F7809584238C939C91A0C0AAE3B0E0A3
:101FE000EAE3F0E08081482F8A81282F30E081E009
:101FF00090E002C0880F991F2A95E2F7842B8C93FA
:102000002C918CC08B818823B1F4A7E3B0E0E7E387
:10201000F0E08081482F8A81282F30E081E090E035
:10202000022E02C0880F991F0A94E2F7809584233C
:102030008C933C9173C0A7E3B0E0E7E3F0E08081CC
:10204000482F8A81282F30E081E090E0022E02C0E4
:10205000880F991F0A94E2F7842B8C938C915EC0B1
:102060008B818823B1F4A4E3B0E0E4E3F0E0808165
:10207000482F8A81282F30E081E090E0022E02C0B4
:10208000880F991F0A94E2F7809584238C939C9182
:1020900045C0A4E3B0E0E4E3F0E08081482F8A810A
:1020A000282F30E081E090E002C0880F991F2A9528
:1020B000E2F7842B8C932C9131C08B818823B1F46F
:1020C000A1E3B0E0E1E3F0E08081482F8A81282F8E
:1020D00030E081E090E0022E02C0880F991F0A9440
:1020E000E2F7809584238C933C9118C0A1E3B0E083
:1020F000E1E3F0E08081482F8A81282F30E081E001
:1021000090E0022E02C0880F991F0A94E2F7842BF8
:102110008C938C9103C092E09C8301C01C828C81C3
:102120002E960FB6F894DEBF0FBECDBFCF91DF91D4
:102130000895DF93CF93CDB7DEB72E970FB6F894FF
:10214000DEBF0FBECDBF89836A834B838981282F71
:1021500030E03E872D878D859E858130910509F47D
:1021600044C02D853E85223031052CF48D859E8519
:10217000009771F0C3C02D853E852230310509F4EA
:1021800062C08D859E858330910509F489C0B6C0F3
:102190008B818823B1F4ABE3B0E0EBE3F0E0808126
:1021A000482F8A81282F30E081E090E0022E02C083
:1021B000880F991F0A94E2F7809584238C939C9151
:1021C000A0C0ABE3B0E0EBE3F0E08081482F8A8170
:1021D000282F30E081E090E002C0880F991F2A95F7
:1021E000E2F7842B8C932C918CC08B818823B1F4E3
:1021F000A8E3B0E0E8E3F0E08081482F8A81282F4F
:1022000030E081E090E0022E02C0880F991F0A940E
:10221000E2F7809584238C933C9173C0A8E3B0E0EF
:10222000E8E3F0E08081482F8A81282F30E081E0C8
:1022300090E0022E02C0880F991F0A94E2F7842BC7
:102240008C938C915EC08B818823B1F4A5E3B0E0C0
:10225000E5E3F0E08081482F8A81282F30E081E09B
:1022600090E0022E02C0880F991F0A94E2F7809531
:1022700084238C939C9145C0A5E3B0E0E5E3F0E0B6
:102280008081482F8A81282F30E081E090E002C0D1
:10229000880F991F2A95E2F7842B8C932C9131C0DB
:1022A0008B818823B1F4A2E3B0E0E2E3F0E0808127
:1022B000482F8A81282F30E081E090E0022E02C072
:1022C000880F991F0A94E2F7809584238C933C91A0
:1022D00018C0A2E3B0E0E2E3F0E08081482F8A81F9
:1022E000282F30E081E090E0022E02C0880F991F75
:1022F0000A94E2F7842B8C938C9103C092E09C8328
:1023000001C01C828C812E960FB6F894DEBF0FBEE2
:10231000CDBFCF91DF910895DF93CF93CDB7DEB7D7
:1023200027970FB6F894DEBF0FBECDBF89836A83AF
:102330005C834B838981282F30E03F832E834E813D
:102340005F8141305105C1F18E819F8182309105BD
:1023500034F42E813F812115310571F08DC04E81FD
:102360005F814230510509F447C08E819F818330DF
:10237000910509F461C080C0E9E3F0E08081482F55
:1023800050E08A81282F30E081E090E002C0880F81
:10239000991F2A95E2F79A01282339238A81882FE9
:1023A00090E0A90102C0559547958A95E2F7CA01C8
:1023B000EB81FC81808363C0E6E3F0E08081482FFD
:1023C00050E08A81282F30E081E090E002C0880F41
:1023D000991F2A95E2F79A01282339238A81882FA9
:1023E00090E0A90102C0559547958A95E2F7CA0188
:1023F000EB81FC81808343C0E3E3F0E08081482FE0
:1024000050E08A81282F30E081E090E002C0880F00
:10241000991F2A95E2F79A01282339238A81882F68
:1024200090E0A90102C0559547958A95E2F7CA0147
:10243000EB81FC81808323C0E0E3F0E08081482FC2
:1024400050E08A81282F30E081E090E002C0880FC0
:10245000991F2A95E2F79A01282339238A81882F28
:1024600090E0A90102C0559547958A95E2F7CA0107
:10247000EB81FC81808303C052E05D8301C01D823B
:102480008D8127960FB6F894DEBF0FBECDBFCF91DA
:10249000DF910895DF93CF9300D000D00F92CDB796
:1024A000DEB789836A838981282F30E03D832C83BE
:1024B0008C819D818130910549F12C813D812230B3
:1024C00031052CF48C819D81009761F05BC02C81DB
:1024D0003D812230310571F18C819D8183309105E0
:1024E000E9F150C0ABE3B0E0EBE3F0E08081482FCE
:1024F0008A81282F30E081E090E0022E02C0880F10
:10250000991F0A94E2F784278C933FC0A8E3B0E0B8
:10251000E8E3F0E08081482F8A81282F30E081E0D5
:1025200090E0022E02C0880F991F0A94E2F78427D8
:102530008C932BC0A5E3B0E0E5E3F0E08081482F69
:102540008A81282F30E081E090E0022E02C0880FBF
:10255000991F0A94E2F784278C9317C0A2E3B0E096
:10256000E2E3F0E08081482F8A81282F30E081E08B
:1025700090E0022E02C0880F991F0A94E2F7842788
:102580008C9303C092E09B8301C01B828B810F90D0
:102590000F900F900F900F90CF91DF910895DF93E0
:1025A000CF9300D000D000D0CDB7DEB789837B8336
:1025B0006A838981282F30E03E832D838D819E811F
:1025C00081309105E1F02D813E81223031052CF4DE
:1025D0008D819E81009761F027C02D813E81223040
:1025E0003105A1F08D819E8183309105B1F01CC031
:1025F000E9E3F0E08081EA81FB81808318C0E6E3B3
:10260000F0E08081EA81FB81808311C0E3E3F0E0A8
:102610008081EA81FB8180830AC0E0E3F0E0808171
:10262000EA81FB81808303C092E09C8301C01C820D
:102630008C8126960FB6F894DEBF0FBECDBFCF912A
:10264000DF910895DF93CF9300D000D00F92CDB7E4
:10265000DEB789836A838981282F30E03D832C830C
:102660008C819D8181309105D1F02C813D8122307A
:1026700031052CF48C819D81009761F01FC02C8165
:102680003D812230310581F08C819D81833091051F
:1026900081F014C0EBE3F0E08A81808312C0E8E3AC
:1026A000F0E08A8180830DC0E5E3F0E08A818083D9
:1026B00008C0E2E3F0E08A81808303C092E09B835C
:1026C00001C01B828B810F900F900F900F900F9085
:1026D000CF91DF910895DF93CF9300D00F92CDB7C4
:1026E000DEB79A83898389819A81692F41E00E94AC
:1026F000A60F882311F41B8202C085E08B838B8197
:102700000F900F900F90CF91DF910895DF93CF93AB
:1027100000D00F92CDB7DEB79A83898389819A81E1
:10272000692F41E00E949910882311F41B8202C096
:1027300085E08B838B810F900F900F90CF91DF916D
:102740000895DF93CF9300D00F92CDB7DEB79A8371
:10275000898389819A81692F40E00E94991088239A
:1027600011F41B8202C085E08B838B810F900F9048
:102770000F90CF91DF910895DF93CF9300D00F9208
:10278000CDB7DEB79A83898389819A81692F0E94A8
:102790004A12882311F41B8202C085E08B838B814F
:1027A0000F900F900F90CF91DF910895DF93CF930B
:1027B000CDB7DEB780917C0190917D010E94BC1362
:1027C000CF91DF910895DF93CF93CDB7DEB780919E
:1027D0007E0190917F010E94BC13CF91DF910895FB
:1027E000DF93CF93CDB7DEB782E00E948A07809156
:1027F0007E0190917F010E94A113CF91DF910895F6
:10280000DF93CF930F92CDB7DEB7198280917C0111
:1028100090917D010E946B13882309F042C0809142
:102820007E0190917F010E946B138823D1F50E9455
:102830001B06882399F586ED93E161E041E02CE2E7
:1028400031E00E94DE06882331F583EE93E162E0F9
:1028500043E024EF31E00E94DE068823E1F42CE718
:1028600034E180E0B9010E94000C882389F42CE94E
:1028700034E181E0B9010E94000C882349F4789486
:1028800080E00E941D0C882371F081E089830BC0D9
:1028900081E0898308C081E0898305C081E0898364
:1028A00002C081E0898389810F90CF91DF910895E3
:1028B000DF93CF93CDB7DEB7E0917701F091780148
:1028C0000995FACFDF93CF93CDB7DEB780E00E94B2
:1028D0001D0C81E00E942E0CCF91DF910895DF93B3
:1028E000CF93CDB7DEB780E00E942E0C81E00E942E
:1028F0001D0CCF91DF910895DF93CF93CDB7DEB755
:1029000082E899E0909378018093770182E00E94B9
:10291000E10B8FE694E10E94EE0B80917C01909197
:102920007D010E94A11380917E0190917F010E9400
:10293000A113CF91DF910895DF93CF93CDB7DEB789
:1029400083E199E0909378018093770181E00E9480
:10295000E10B82E694E10E94EE0BCF91DF910895A6
:10296000DF93CF930F92CDB7DEB719820E94001488
:1029700089838981882311F40E94581480E090E0B3
:102980000F90CF91DF9108952F923F924F925F92D7
:102990006F927F928F929F92AF92BF92CF92DF926F
:1029A000EF92FF920F931F93CF93DF93CDB7DEB7D4
:1029B000CA1BDB0B0FB6F894DEBF0FBECDBF099468
:1029C0002A88398848885F846E847D848C849B84BF
:1029D000AA84B984C884DF80EE80FD800C811B81CD
:1029E000AA81B981CE0FD11D0FB6F894DEBF0FBEFC
:0A29F000CDBFED010895F894FFCF6C
:1029FA0000000000000000000001020203030303BC
:102A0A000404040404040404050505050505050574
:102A1A000505050505050505060606060606060654
:102A2A00060606060606060606060606060606063C
:102A3A000606060606060606070707070707070724
:102A4A00070707070707070707070707070707070C
:102A5A0007070707070707070707070707070707FC
:102A6A0007070707070707070707070707070707EC
:102A7A0007070707070707070808080808080808D4
:102A8A0008080808080808080808080808080808BC
:102A9A0008080808080808080808080808080808AC
:102AAA00080808080808080808080808080808089C
:102ABA00080808080808080808080808080808088C
:102ACA00080808080808080808080808080808087C
:102ADA00080808080808080808080808080808086C
:102AEA00080808080808080808080808080808085C
:102AFA000808080808080808010100000001000881
:102B0A0000200040008000130902030202070202AB
:00000001FF
